:020000040802F0
:10000000FCFF02200D250208E5200208EB20020873
:10001000F1200208F7200208FD200208000000007D
:1000200000000000000000000000000091EB02084A
:100030000321020800000000D1ED0208FDBB020808
:100040005D2502085D2502085D2502085D25020880
:100050005D2502085D2502085D2502085D25020870
:100060005D2502085D2502085D2502085D25020860
:100070005D2502085D2502085D2502085D25020850
:100080005D2502085D2502085D2502085D25020840
:100090005D2502085D2502085D2502085D25020830
:1000A0005D2502085D2502085D2502085D25020820
:1000B0005D2502085D2502085D2502085D25020810
:1000C0005D25020811210208252102085D2502088C
:1000D0005D250208392102085D2502084D2102082C
:1000E0005D2502085D2502085D2502085D250208E0
:1000F0005D2502085D2502085D2502085D250208D0
:100100005D2502085D250208612102085D250208BF
:100110005D2502085D2502085D250208752102089B
:10012000892102085D2502085D2502089D2102083B
:100130005D2502085D2502085D2502085D2502088F
:10014000B1210208C52102085D2502085D250208CB
:100150005D2502085D2502085D2502085D2502086F
:100160005D2502085D2502085D2502085D2502085F
:100170005D2502085D2502085D25020800000000DB
:100180005D2502085D2502085D2502085D2502083F
:100190005D2502085D2502085D2502085D2502082F
:1001A000D9210208ED210208012202080000000006
:1001B000000000000000000000000000000000003F
:1001C000000000000000000000000000000000002F
:1001D000000000000000000000000000000000001F
:1001E000000000000000000000000000000000000F
:1001F00000000000000000000000000000000000FF
:1002000000000000000000000000000000000000EE
:1002100000000000000000000000000000000000DE
:1002200010B5054C237833B9044B13B10448AFF330
:1002300000800123237010BDF800002000000000A2
:100240000856040808B5034B1BB103490348AFF334
:10025000008008BD00000000FC00002008560408D3
:1002600001F0FF01102A2BDB10F0070F08D010F867
:10027000013B013A8B422DD010F0070F42B3F6D16B
:10028000F0B441EA012141EA014122F007047FF084
:1002900000070023F0E80256083C85EA010586EADB
:1002A000010685FA47F5A3FA87F586FA47F6A5FA17
:1002B00087F68EB9EED1F0BC01F0FF0102F0070223
:1002C00032B110F8013B013A83EA010313B1F8D1CE
:1002D0000020704701387047002D06BF35460338AF
:1002E000073815F0010F07D1013015F4807F02BFE8
:1002F000013015F4C03F0130F0BC0138704700BF39
:1003000053B94AB9002908BF00281CBF4FF0FF317C
:100310004FF0FF3000F072B9ADF1080C6DE904CE7A
:1003200000F006F8DDF804E0DDE9022304B07047D0
:100330002DE9F047089E04468846002B4BD18A429F
:10034000154667D9B2FA82F24AB1C2F1200701FA22
:1003500002F320FA07F7954047EA030894404FEA72
:10036000154E230CB8FBFEF71FFA85FC0EFB178811
:1003700043EA084307FB0CF1994209D9EB1807F14E
:10038000FF3080F01B81994240F21881023F2B44DC
:100390005B1AA4B2B3FBFEF00EFB103344EA034435
:1003A00000FB0CFCA44509D92C1900F1FF3380F0A7
:1003B0000781A44540F2048102382C4440EA0740FA
:1003C000A4EB0C0400271EB1D4400023C6E900436F
:1003D0003946BDE8F0878B4209D9002E00F0EB804A
:1003E0000027C6E9000138463946BDE8F087B3FA70
:1003F00083F7002F47D18B4202D3824200F2FA806A
:10040000841A61EB030301209846002EE0D0C6E970
:100410000048DDE702B9FFDEB2FA82F2002A40F0BE
:100420008F80491B4FEA154E1FFA85F80127B1FB53
:10043000FEFC230C0EFB1C1143EA014308FB0CF1EC
:10044000994207D9EB180CF1FF3002D2994200F221
:10045000CD808446591AA3B2B1FBFEF00EFB1014F6
:1004600043EA044408FB00F8A04507D92C1900F121
:10047000FF3302D2A04500F2B6801846A4EB080470
:1004800040EA0C409FE7C7F1200CBB4022FA0CFE6B
:100490004EEA030E01FA07F420FA0CF521FA0CF3E8
:1004A0004FEA1E482543B3FBF8F92C0C08FB19331F
:1004B0001FFA8EFA44EA034309FB0AF49C4202FA4B
:1004C00007F200FA07F10BD91EEB030309F1FF3025
:1004D00080F087809C4240F28480A9F10209734435
:1004E0001B1BADB2B3FBF8F008FB103345EA034425
:1004F00000FB0AFAA24508D91EEB040400F1FF3301
:100500006BD2A24569D90238744440EA0940A0FB85
:100510000289A4EB0A044C45C2464B4654D351D041
:10052000002E69D0B1EB0A0564EB030404FA0CFC5D
:10053000FD40FC404CEA0505C6E90054002747E7AA
:10054000C2F1200320FA03F7954001FA02F021FAE4
:1005500003F34FEA154E3843010CB3FBFEF71FFAC5
:1005600085F80EFB173341EA034107FB08F38B4282
:1005700004FA02F407D9691807F1FF3C2FD28B4225
:100580002DD9023F2944CB1A81B2B3FBFEF00EFBFA
:10059000103341EA034100FB08F38B4207D9691885
:1005A00000F1FF3C17D28B4215D902382944C91AF1
:1005B00040EA07473BE73746304609E70746E7E6A4
:1005C0001846FBE64145ABD2B8EB020A69EB0E02D6
:1005D00001381346A4E76046E9E7184695E7674601
:1005E000D1E781467CE702382C4447E7ACF1020CA6
:1005F0002B442FE7384608E73746E9E6704700BF47
:1006000080B582B000AF0346FB71FB79002B10D19F
:1006100001224FF40041104803F0BAFE0F4B1B6853
:100620001B78184600F01EF804210D4809F08CFBD9
:100630000DE004210A4809F04FFC002000F012F8F8
:1006400000224FF40041044803F0A2FE00BF00BFA7
:100650000837BD4680BD00BF0004024044C10020F1
:10066000A0C4002080B483B000AF0346FB71FB79C7
:10067000642B28BF6423FB71104B1B68FA791A7036
:10068000FB79002B0FD0FA7913465B0013445A0113
:10069000D31A0B4A82FB03125211DB17D31ADBB2B7
:1006A0000733FB7100E000BF064B1B68FA799A63C1
:1006B00000BF0C37BD465DF8047B704744C1002085
:1006C0001F85EB51A0C4002080B400AF00BFBD4621
:1006D0005DF8047B704780B400AF00BFBD465DF895
:1006E000047B704780B500AF01F03AFF00F062F87C
:1006F00000F014FD00F08EFC00F00CF900F03AFA66
:1007000000F0B0FC00F072FB00F0A4FB00F0C4FBB2
:1007100000F0F0F900F02CFB00F0BAF900F01EFC3C
:1007200000F04EFC00F0A0F900F0C8FA0EF0F4FD65
:10073000154B1B6864221A700020FFF761FF0BF055
:1007400077FA124A012101200BF069FB0246104B97
:100750001A60104A0C2114200BF082FC02460E4B4A
:100760001A600E4A00210E480BF0ACFA02460D4BFF
:100770001A600D4A00210D480BF0A4FA02460C4BFA
:100780001A600BF079FAFEE744C10020D05B040840
:10079000A4C30020B85B04084CC10020705B0408AF
:1007A0000114020848C10020945B040815140208D3
:1007B00080C3002080B5A0B000AF0023FB6707F125
:1007C0004C0330220021184623F0A1FF07F1380323
:1007D00000221A605A609A60DA601A6107F1080311
:1007E00030220021184623F092FF00237B60474B04
:1007F0001B6C464A43F080531364444B1B6C03F05C
:1008000080537B607B6800233B60414B1B68404A00
:1008100043F4404313603E4B1B6803F440433B608A
:100820003B68FB6F002B14D10523FB644FF480332E
:100830003B6501237B6502237B664FF48003BB6627
:100840000423FB66B4233B6702237B670423BB6757
:1008500013E00923FB644FF480333B6501233B66BF
:1008600002237B664FF48003BB660423FB66B4233C
:100870003B6702237B670423BB6707F14C031846E1
:1008800007F078F80346002B02D00123FB67ACE7A2
:1008900007F020F80346002B01D000F0D5FD0F2310
:1008A000BB630223FB6300233B644FF4A0537B64D0
:1008B0004FF48053BB6407F138030521184607F055
:1008C000CFFA0346002B01D000F0BEFD2823BB6009
:1008D0004523BB6103233B620023FB62FB6F012BBB
:1008E00003D14FF400733B6302E04FF480733B632A
:1008F00007F10803184607F0D7FC0346002B00D089
:1009000073E700BF8037BD4680BD00BF003802409E
:100910000070004080B58AB000AF4F4B4F4A1A605C
:100920004D4B0C225A604C4B00229A604A4B0022DD
:10093000DA60494B4FF430221A61474B4FF4801272
:100940005A61454B00221A76434B01225A76424B9C
:1009500000229A76404B0122DA763F4B00221A772A
:100960003D4B00225A773C4801F05EFE0346002BC7
:1009700001D000F069FD0E237B620E237B61002312
:10098000BB610023FB614FF480533B60344BBB6081
:100990004FF481537B60334BFB6001233B610123A8
:1009A0003B623B4619462C4801F03AFF0346002BB8
:1009B00045D10F237B614FF476633B604FF47E6338
:1009C000BB6000237B604FF47E63FB6001233B61CF
:1009D00001233B623B4619461F4801F021FF0346B5
:1009E000002B2ED110237B614BF220033B604BF692
:1009F000E073BB6000237B604FF47E63FB600123E8
:100A00003B6101233B623B461946134801F008FF56
:100A10000346002B17D1104801F0E2FF0346002BDC
:100A200013D102210C4802F01FF80346002B0ED10F
:100A30001021094802F018F80346002B08E000BF17
:100A400006E000BF04E000BF02E000BF00E000BF1E
:100A50002837BD4680BD00BF14C300200068004099
:100A6000E0FF1F0000F01F0080B500AF064B074AF3
:100A70001A60054802F064FB0346002B01D000F029
:100A8000E3FC00BF80BD00BFDCC10020003002409D
:100A900080B500AF154B164A1A60144B00225A60FD
:100AA000124B02229A60114B0022DA600F4B002297
:100AB0009A620E4B0222DA620C4B00221A630B4B35
:100AC00000225A63094802F0C3FF0346002B01D0FD
:100AD00000F0BAFC0121054803F014F90346002B8D
:100AE00001D000F0B1FC00BF80BD00BFA8C3002052
:100AF00000B0024080B500AF1B4B1C4A1A601A4B75
:100B00001B4A5A60184B00229A60174B0022DA6089
:100B1000154B4FF480421A61134B00225A61124B5D
:100B200000229A61104B0022DA610F4B00221A62F8
:100B30000D4803F047FC0346002B01D000F084FC75
:100B40000021094806F016FA0346002B01D000F0F8
:100B50007BFC0021044806F049FA0346002B01D033
:100B600000F072FC00BF80BDE4C1002000580040CE
:100B7000801A060080B58EB000AF4C4B4C4A1A600C
:100B80004A4806F043FB3B1D34220021184623F05F
:100B9000BEFD464B464A1A60444B00225A60434B06
:100BA00000229A60414B0022DA60404B00221A6119
:100BB0003E4B07225A613D4B07229A613B4B0E2266
:100BC000DA613A4B13221A62384B40F22E325A62E3
:100BD000364B40F2F3129A62344B40F25E32DA62E4
:100BE000324B40F2FF121A63304B002283F834205C
:100BF0002E4B002283F835202C4B002283F8362020
:100C00002A4806F033FA0346002B01D000F01CFC02
:100C100000237B604FF44873BB600023FB604FF4FC
:100C2000F0733B6102237B61FF23BB610023FB6107
:100C30004FF480633B6205237B621E4BBB624FF423
:100C40004873FB624FF4F0733B63002387F8343042
:100C5000002387F83530002387F836303B1D00220B
:100C60001946124806F0A2FB0346002B01D000F003
:100C7000EBFB00224FF448710C4806F0D5FB002234
:100C80004FF400710C4803F083FB642001F0AAFCD0
:100C900001224FF40071084803F07AFB142001F0A0
:100CA000A1FC00BF3837BD4680BD00BF38C2002060
:100CB00000680140000050D00014024080B586B0AA
:100CC00000AF3B1D00221A605A609A60DA601A6118
:100CD00000233B60244B254A1A60234B00225A60B4
:100CE000214B7F229A60204BFF22DA601E4B0022AC
:100CF0001A611D4B00225A611B4B00229A611A484F
:100D000007F090FC0346002B01D000F09DFB002370
:100D10003B7100237B710023BB7100233B610023E7
:100D20007B613B1D002219460F4807F00CFD03466E
:100D3000002B01D000F088FB05233B7006237B705D
:100D40000123BB701523FB703B4600221946064861
:100D500007F0B6FD0346002B01D000F075FB00BF85
:100D60001837BD4680BD00BF84C300200028004066
:100D700080B500AF1B4B1C4A1A601A4807F0C1FF30
:100D8000184B194A1A60174B4FF482725A60154B70
:100D900000229A60134B0022DA60124B00221A6183
:100DA000104B00225A610F4B4FF400729A610D4BA9
:100DB0001022DA610B4B00221A620A4B00225A629F
:100DC000084B00229A62074B0A22DA62054807F0B4
:100DD0000FFF0346002B01D000F036FB01F026FB8D
:100DE00000BF80BDE8C300200030014080B582B064
:100DF00000AF3B4600221A605A60144B144A1A6036
:100E0000124B00225A60114B00229A600F4B0022B5
:100E1000DA600E4B00229A610C4808F07BFE034614
:100E2000002B01D000F010FB00233B6000237B600F
:100E30003B461946054809F07DFE0346002B01D0CC
:100E400000F002FB00BF0837BD4680BDE8C40020AB
:100E50000014004080B500AF0D4B0E4A1A600C4BD9
:100E600000225A600A4B00229A60094B0022DA6085
:100E7000074B00221A61064B00229A61044808F0D1
:100E800049FE0346002B01D000F0DEFA00BF80BD12
:100E900094C100200044014080B58CB000AF07F140
:100EA000200300221A605A609A60DA603B1D00221B
:100EB0001A605A609A60DA601A615A619A61254B29
:100EC000254A1A60234B40F2C1125A60214B00227E
:100ED0009A60204B6322DA601E4B00221A611D4B80
:100EE00000229A611B4808F015FE0346002B01D032
:100EF00000F0AAFA4FF480533B6207F12003194631
:100F0000144809F023FA0346002B01D000F09CFAA4
:100F1000104808F0BFFE0346002B01D000F094FA01
:100F200060237B600023BB600023FB6000237B61A8
:100F30003B1D04221946074809F046F90346002BD9
:100F400001D000F081FA034800F0FAFE00BF30370C
:100F5000BD4680BDA0C400200018004080B500AF91
:100F6000154B164A1A60144B4FF4E1325A60124B7B
:100F700000229A60104B0022DA600F4B00221A61A7
:100F80000D4B0C225A610C4B00229A610A4B002235
:100F9000DA61094809F05EFE0346002B01D000F03B
:100FA00053FA054B1B685A69034B1B6842F0010258
:100FB0005A6100BF80BD00BF3CC30020001001404B
:100FC00080B500AF114B124A1A60104B4FF4E1325A
:100FD0005A600E4B00229A600C4B0022DA600B4BD9
:100FE00000221A61094B0C225A61084B00229A61B7
:100FF000064B0022DA61054809F02CFE0346002B5F
:1010000001D000F021FA00BF80BD00BF50C1002018
:101010000048004080B582B000AF00237B60104BD9
:101020001B6B0F4A43F4800313630D4B1B6B03F4DC
:1010300080037B607B6800220321382002F048F89F
:10104000382002F061F8002204213B2002F040F831
:101050003B2002F059F800BF0837BD4680BD00BFF5
:101060000038024080B588B000AF3B1D00221A60F6
:101070005A609A60DA601A615A619A61234B244A75
:101080001A60224B01225A60204B00229A601F4BAB
:101090000422DA601D4B10221A611C4B40225A6157
:1010A0001A4B4FF4C0729A61184B0022DA61174B49
:1010B0004FF400621A62154B4FF480525A62134B80
:1010C00000229A6202237B600723BB600423FB603B
:1010D00007233B6103237B610223BB610223FB6186
:1010E0003B1D1946094807F004FD0346002B01D0BB
:1010F00000F0AAF900F01EF9064A0021064823F084
:1011000006FB00BF2037BD4680BD00BFE0C2002007
:10111000400100A000701700000050D080B58EB0D4
:1011200000AF07F1240300221A605A609A60DA6067
:101130001A6100233B62794B1B6B784A43F0100322
:101140001363764B1B6B03F010033B623B6A002377
:10115000FB61724B1B6B714A43F0040313636F4BCB
:101160001B6B03F00403FB61FB690023BB616B4B4A
:101170001B6B6A4A43F020031363684B1B6B03F03D
:101180002003BB61BB6900237B61644B1B6B634A1B
:1011900043F080031363614B1B6B03F080037B619F
:1011A0007B6900233B615D4B1B6B5C4A43F0010391
:1011B00013635A4B1B6B03F001033B613B69002334
:1011C000FB60564B1B6B554A43F002031363534BB2
:1011D0001B6B03F00203FB60FB680023BB604F4BFB
:1011E0001B6B4E4A43F0400313634C4B1B6B03F0E5
:1011F0004003BB60BB6800237B60484B1B6B474AC6
:1012000043F008031363454B1B6B03F008037B603B
:101210007B6800233B60414B1B6B404A43F4807367
:1012200013633E4B1B6B03F480733B603B680022EF
:101230004FF400713A4803F0ABF800220821394816
:1012400003F0A6F800221021374803F0A1F800228D
:101250004FF48041354803F09BF800224FF4805151
:10126000334803F095F84FF400737B620123BB62AF
:101270000023FB6200233B6307F12403194628483F
:1012800002F0D2FD08237B620123BB620023FB62D4
:1012900000233B6307F124031946224802F0C4FDF2
:1012A00010237B620123BB620023FB6200233B63AC
:1012B00007F1240319461C4802F0B6FD20237B6287
:1012C0004FF48813BB620023FB6207F12403194625
:1012D000154802F0A9FD4FF480437B620123BB62F5
:1012E0000023FB6200233B6307F1240319460F48E8
:1012F00002F09AFD4FF480537B620123BB6200230E
:10130000FB6200233B6307F124031946084802F0FF
:101310008BFD00BF3837BD4680BD00BF003802409E
:101320000014024000000240000802400004024095
:10133000000C024080B586B000AF00237B61012322
:101340007B600823BB600123FB6000233B613B1DE6
:101350004FF6FF7219461F4807F0FFFB012001F00E
:1013600041F902237B600823BB600123FB6000235B
:101370003B613B1D4FF6FF721946164807F0EDFB27
:1013800003237B600823BB600423FB6000233B61D5
:101390003B1D4FF6FF7219460E4807F0DEFB4FF477
:1013A0000C737B6104237B600823BB600123FB601B
:1013B0007B693B613B1D4FF6FF721946054807F0FC
:1013C000CCFB40F26A51034807F0F2FB00BF18372C
:1013D000BD4680BDE0C2002080B483B000AF78601D
:1013E00000BF0C37BD465DF8047B704780B483B006
:1013F00000AF786000BF0C37BD465DF8047B7047D6
:1014000080B582B000AF78600DF08CFF01200AF04B
:10141000EBFCFBE780B582B000AF786001200AF0FA
:10142000E3FCFBE780B582B000AF78607B681B68A7
:10143000044A934201D101F0B5F800BF0837BD4618
:1014400080BD00BF000C004080B400AF72B6FEE764
:1014500080B582B000AF00237B60124B5B6C114AF9
:1014600043F4804353640F4B5B6C03F480437B6015
:101470007B6800233B600B4B1B6C0A4A43F0805394
:101480001364084B1B6C03F080533B603B680022E5
:101490000F216FF0010001F01BFE00BF0837BD46B1
:1014A00080BD00BF0038024080B58AB000AF7860D0
:1014B00007F1140300221A605A609A60DA601A6118
:1014C0007B681B68284A93424AD100233B61274B23
:1014D0001B6C264A43F080631364244B1B6C03F09F
:1014E00080633B613B690023FB60204B1B6C1F4A00
:1014F00043F0007313641D4B1B6C03F00073FB601F
:10150000FB680023BB60194B1B6B184A43F00203B6
:101510001363164B1B6B03F00203BB60BB684FF4F5
:1015200040537B610223BB610023FB6103233B62C9
:1015300009237B6207F1140319460D4802F074FC7D
:1015400000220521402001F0C3FD402001F0DCFD18
:1015500000220521412001F0BBFD412001F0D4FD16
:1015600000BF2837BD4680BD0068004000380240FB
:101570000004024080B485B000AF78607B681B68CF
:101580000B4A93420DD10023FB600A4B1B6B094AA7
:1015900043F480531363074B1B6B03F48053FB60CE
:1015A000FB6800BF1437BD465DF8047B704700BF81
:1015B000003002400038024080B584B000AF78604F
:1015C0007B681B680E4A934215D10023FB600D4BCC
:1015D0001B6B0C4A43F4000313630A4B1B6B03F4AD
:1015E0000003FB60FB68002205215A2001F070FD1A
:1015F0005A2001F089FD00BF1037BD4680BD00BFF5
:1016000000B002400038024080B58AB000AF786078
:1016100007F1140300221A605A609A60DA601A61B6
:101620007B681B68374A934268D100233B61364B85
:101630001B6C354A43F480031364334B1B6C03F477
:1016400080033B613B6930237B610123BB61032342
:101650003B6207F1140319462C4802F0E5FB012216
:1016600004212A4802F094FE01220521274802F0B5
:101670008FFE7B681B684FF400421A607B681B6812
:1016800000221A600023FB601F4B1B6B1E4A43F0B5
:10169000800313631C4B1B6B03F08003FB60FB6830
:1016A00030237B611223BB610123FB6103233B6277
:1016B00004237B6207F114031946144802F0B4FBBB
:1016C0000023BB60104B1B6C0F4A43F48003136470
:1016D0000D4B1B6C03F48003BB60BB68002205212B
:1016E000212001F0F5FC212001F00EFD0022052152
:1016F000222001F0EDFC222001F006FD00BF28377A
:10170000BD4680BD0058004000380240001C024029
:1017100080B582B000AF78607B681B680D4A934249
:1017200013D10D4B1B6C0C4A23F48003136410215E
:101730000A4802F023FD2021084802F01FFD212065
:1017400001F0F0FC222001F0EDFC00BF0837BD469F
:1017500080BD00BF0058004000380240001C02401D
:1017600080B590B000AF786007F12C0300221A60BA
:101770005A609A60DA601A617B681B688C4A9342EF
:1017800040F011810023BB628A4B5B6C894A43F0B5
:1017900080635364874B5B6C03F08063BB62BB6AFE
:1017A00000237B62834B1B6B824A43F0100313635D
:1017B000804B1B6B03F010037B627B6A00233B6250
:1017C0007C4B1B6B7B4A43F020031363794B1B6BF1
:1017D00003F020033B623B6A0023FB61754B1B6BEC
:1017E000744A43F001031363724B1B6B03F0010354
:1017F000FB61FB690023BB616E4B1B6B6D4A43F0C1
:10180000020313636B4B1B6B03F00203BB61BB69E9
:1018100000237B61674B1B6B664A43F080031363B5
:10182000644B1B6B03F080037B617B6900233B618E
:10183000604B1B6B5F4A43F0400313635D4B1B6BB4
:1018400003F040033B613B690023FB60594B1B6B7A
:10185000584A43F004031363564B1B6B03F0040315
:10186000FB60FB680023BB60524B1B6B514A43F487
:10187000807313634F4B1B6B03F48073BB60BB68B7
:101880007023FB6202233B6300237B630023BB6363
:101890000E23FB6307F12C031946474802F0C4FAF4
:1018A0004FF48063FB6202233B6300237B630023CE
:1018B000BB630E23FB6307F12C0319463F4802F07C
:1018C000B3FA5023FB6202233B6300237B630023B4
:1018D000BB630E23FB6307F12C031946384802F063
:1018E000A3FA0123FB6202233B6300237B630023F3
:1018F000BB630923FB6307F12C031946314802F04F
:1019000093FA4FF45C43FB6202233B6300237B6347
:101910000023BB630E23FB6307F12C0319462A48FF
:1019200002F082FA4FF4E653FB6202233B6300238A
:101930007B630023BB630E23FB6307F12C03194673
:10194000224802F071FA4023FB6202233B6300232A
:101950007B630023BB630E23FB6307F12C03194653
:101960001B4802F061FAF723FB6202233B6300236A
:101970007B630023BB630E23FB6307F12C03194633
:10198000144802F051FA00220521582001F0A0FB72
:10199000582001F0B9FB00220521592001F098FBE5
:1019A000592001F0B1FB00BF4037BD4680BD00BFEC
:1019B000006801400038024000100240001402405C
:1019C0000000024000040240001C024000180240D7
:1019D000000802400020024080B582B000AF78606D
:1019E0007B681B681A4A93422ED11A4B5B6C194ACA
:1019F00023F0806353647021174802F0BFFB4FF45B
:101A00008061164802F0BAFB5021154802F0B6FB7F
:101A10000121144802F0B2FB4FF45C41124802F07D
:101A2000ADFB4FF4E651114802F0A8FB40211048ED
:101A300002F0A4FBF7210F4802F0A0FB582001F0B0
:101A400071FB592001F06EFB00BF0837BD4680BD19
:101A500000680140003802400010024000140240BB
:101A60000000024000040240001C02400018024036
:101A7000000802400020024080B483B000AF7860CC
:101A80007B681B68054A934202D1054B01221A600C
:101A900000BF0C37BD465DF8047B7047002800404E
:101AA0003C0E474280B58AB000AF786007F114035E
:101AB00000221A605A609A60DA601A617B681B68BB
:101AC000564A934240F0A68000233B61544B5B6C26
:101AD000534A43F480535364514B5B6C03F480537B
:101AE0003B613B690023FB604D4B1B6B4C4A43F051
:101AF000010313634A4B1B6B03F00103FB60FB689C
:101B00000023BB60464B1B6B454A43F00203136343
:101B1000434B1B6B03F00203BB60BB68A0237B61DC
:101B20000223BB610023FB6103233B6205237B622D
:101B300007F1140319463B4802F076F910237B6144
:101B40000223BB610023FB6103233B6205237B620D
:101B500007F114031946344802F066F9334B344A4E
:101B60001A60324B4FF0C0625A60304B00229A60CC
:101B70002E4B0022DA602D4B4FF480621A612B4B02
:101B800000225A61294B00229A61284B0022DA6117
:101B9000264B00221A62254B00225A62234801F08C
:101BA000EBFA0346002B01D0FFF74EFC7B681F4A7F
:101BB000DA641E4A7B6893631E4B1F4A1A601D4BF2
:101BC0004FF0C0625A601B4B40229A60194B0022B2
:101BD000DA60184B4FF480621A61164B00225A618A
:101BE000144B00229A61134B0022DA61114B002240
:101BF0001A62104B00225A620E4801F0BDFA0346E9
:101C0000002B01D0FFF720FC7B680A4A9A64094A3E
:101C10007B68936300BF2837BD4680BD003001401C
:101C200000380240000002400004024040C400208E
:101C30001064024030C500205864024080B582B074
:101C400000AF78607B681B680F4A934217D10F4B37
:101C50005B6C0E4A23F480535364A0210C4802F0BD
:101C60008DFA10210B4802F089FA7B68DB6C18466C
:101C700001F030FB7B689B6C184601F02BFB00BF2A
:101C80000837BD4680BD00BF00300140003802402B
:101C9000000002400004024080B586B000AF7860CA
:101CA0007B681B68224A934216D100237B61214B3B
:101CB0001B6C204A43F0200313641E4B1B6C03F083
:101CC00020037B617B6900220521372001F000FAA7
:101CD000372001F019FA26E07B681B68164A934208
:101CE0000ED100233B61134B5B6C124A43F400336B
:101CF0005364104B5B6C03F400333B613B6912E0AF
:101D00007B681B680D4A93420DD10023FB60094B91
:101D10001B6C084A43F040031364064B1B6C03F032
:101D20004003FB60FB6800BF1837BD4680BD00BFA5
:101D300000140040003802400044014000180040F8
:101D400080B588B000AF786007F10C0300221A60FC
:101D50005A609A60DA601A617B681B68124A934283
:101D60001ED10023BB60114B1B6B104A43F00203D2
:101D700013630E4B1B6B03F00203BB60BB684FF495
:101D80000043FB6002233B6100237B610023BB61B6
:101D90000923FB6107F10C031946054802F044F8DA
:101DA00000BF2037BD4680BD00180040003802400B
:101DB0000004024080B58CB000AF786007F11C03CE
:101DC00000221A605A609A60DA601A617B681B68A8
:101DD0003B4A934235D10023BB613A4B5B6C394A95
:101DE00043F010035364374B5B6C03F01003BB618B
:101DF000BB6900237B61334B1B6B324A43F0010309
:101E00001363304B1B6B03F001037B617B694FF461
:101E1000C063FB6102233B6200237B620323BB623E
:101E20000723FB6207F11C031946274801F0FCFF5A
:101E300000220521252001F04BF9252001F064F94D
:101E400039E07B681B68214A934234D100233B610F
:101E50001C4B1B6C1B4A43F480231364194B1B6CF3
:101E600003F480233B613B690023FB60154B1B6B34
:101E7000144A43F002031363124B1B6B03F002037B
:101E8000FB60FB684FF44063FB6102233B6200236D
:101E90007B620323BB620723FB6207F11C03194625
:101EA0000B4801F0C1FF00220521272001F010F9A5
:101EB000272001F029F900BF3037BD4680BD00BFA3
:101EC000001001400038024000000240004800407D
:101ED0000004024080B586B000AF3B1D00221A60AE
:101EE0005A609A60DA601A61434B1B68002B7ED1FE
:101EF000414B01221A6000233B60404B9B6B3F4AE1
:101F000043F0010393633D4B9B6B03F001033B6084
:101F10003B684FF63F037B600223BB600023FB60FE
:101F200003233B610C237B613B1D1946344801F0C0
:101F30007BFF01237B600223BB600023FB60032344
:101F40003B610C237B613B1D19462E4801F06CFF61
:101F500048F233137B600223BB600023FB60032342
:101F60003B610C237B613B1D1946274801F05CFF58
:101F70004FF683737B600223BB600023FB60032367
:101F80003B610C237B613B1D1946204801F04CFF4F
:101F900040237B600223BB600023FB6003233B6183
:101FA0000C237B613B1D1946194801F03DFF4CF2A3
:101FB00003737B600223BB600023FB6003233B6150
:101FC0000C237B613B1D1946124801F02DFF202395
:101FD0007B600223BB600023FB6003233B610C2377
:101FE0007B613B1D19460C4801F01EFF00E000BF5D
:101FF0001837BD4680BD00BF1401002000380240E4
:102000000014024000080240001802400010024084
:10201000001C0240000C02400004024080B582B067
:1020200000AF7860FFF756FF00BF0837BD4680BDA0
:1020300080B58CB000AF78600023FB620023BB62E8
:1020400000227968322001F043F8322001F05CF878
:102050000023FB601F4B1B6C1E4A43F008031364F4
:102060001C4B1B6C03F00803FB60FB6807F11002BC
:1020700007F114031146184606F0E4F806F0BAF822
:1020800003465B00FB62FB6A134AA2FB03239B0C23
:10209000013BBB62114B124A1A60104B40F2E7320F
:1020A000DA600E4ABB6A53600C4B00221A610B4B7C
:1020B00000229A60094807F02DFD0346002B04D149
:1020C000064807F077FD034600E001231846303745
:1020D000BD4680BD0038024083DE1B4390C5002012
:1020E000000C004080B400AFFEE780B400AFFEE714
:1020F00080B400AFFEE780B400AFFEE780B400AF6D
:10210000FEE780B400AF00BFBD465DF8047B7047BA
:1021100080B500AF024802F009FF00BF80BD00BFDC
:10212000E4C1002080B500AF024803F070F800BFA2
:1021300080BD00BFE4C1002080B500AF024808F0B8
:10214000D7FD00BF80BD00BF3CC3002080B500AFFD
:10215000024808F0CDFD00BF80BD00BF50C1002087
:1021600080B500AF024807F027FF00BF80BD00BF69
:1021700090C5002080B500AF024807F01DFF00BFEA
:1021800080BD00BFE8C4002080B500AF024801F068
:10219000E9F900BF80BD00BF40C4002080B500AF9A
:1021A000024801F0DFF900BF80BD00BF30C500204C
:1021B00080B500AF024800F07DFC00BF80BD00BFCD
:1021C00014C3002080B500AF024800F073FC00BFCC
:1021D00080BD00BF14C3002080B500AF024805F0E9
:1021E0002DF800BF80BD00BF38C2002080B500AF11
:1021F000024805F023F800BF80BD00BF38C20020B0
:1022000080B500AF024801F06CFC00BF80BD00BF8C
:10221000A8C3002080B400AF01231846BD465DF876
:10222000047B704780B582B000AF7860396022F0DF
:1022300017FA0246162313604FF0FF33184608378B
:10224000BD4680BD80B582B000AF78604FF0FF31F1
:102250007868FFF7E7FFFEE780B586B000AFF8606B
:10226000B9607A6000237B610AE0AFF30080014629
:10227000BB685A1CBA60CAB21A707B6901337B61B1
:102280007A697B689A42F0DB7B6818461837BD464E
:1022900080BD80B586B000AFF860B9607A60002379
:1022A0007B6109E0BB685A1CBA601B781846AFF323
:1022B00000807B6901337B617A697B689A42F1DB3C
:1022C0007B6818461837BD4680BD80B483B000AF28
:1022D00078604FF0FF3318460C37BD465DF8047B3D
:1022E000704780B483B000AF786039603B684FF4CA
:1022F00000525A60002318460C37BD465DF8047B37
:10230000704780B483B000AF7860012318460C3763
:10231000BD465DF8047B704780B485B000AFF860BF
:10232000B9607A60002318461437BD465DF8047B17
:102330007047000080B586B000AF7860144A154B36
:10234000D31A7B617B693B61134B1B68002B02D165
:10235000114B124A1A60104B1A687B6813443A6991
:102360009A4207D222F07CF902460C2313604FF008
:10237000FF3309E0084B1B68FB60074B1A687B685A
:102380001344054A1360FB6818461837BD4680BDE4
:10239000FCFF0220001000001801002020C60020D1
:1023A00080B400AF074BD3F88830064A43F470037B
:1023B000C2F88830034B044A9A6000BFBD465DF8FE
:1023C000047B704700ED00E00000020880B586B095
:1023D00002AF0346FB710023FB73FB79BB73002242
:1023E0004FF400410F4801F0D3FF07F10F0207F14E
:1023F0000E010123009301230B4806F0AAFC00BF45
:10240000094807F00FF90346012BF9D101224FF4D7
:102410000041044801F0BCFFFB7B18461037BD4665
:1024200080BD00BF00000240E8C3002080B586B038
:1024300000AF4FF400437B600123BB600023FB60CF
:1024400000233B613B1D1946164801F0EDFC0022BC
:102450004FF40041134801F09BFF6620FFF7B6FFE1
:10246000052000F0BFF89920FFF7B0FF052000F02D
:10247000B9F80A2000F0B6F89F2000F015F80346DE
:10248000EF2B00D0F5E700BF9F2000F00DF80346CA
:10249000EF2B01D0012300E0002318461837BD467A
:1024A00080BD00BF0000024080B584B000AF03468D
:1024B000FB7100233B7300237B73FB793B7200238A
:1024C0007B7200224FF400410E4801F061FF07F1DA
:1024D0000C0207F1080102230B4806F05BFF00BF66
:1024E000094807F09FF80346012BF9D101224FF468
:1024F0000041044801F04CFF7B7B18461037BD4675
:1025000080BD00BF00000240E8C30020DFF834D0E7
:102510000D480E490E4A002302E0D458C45004333B
:10252000C4188C42F9D30B4A0B4C002301E0136012
:102530000432A242FBD3FFF733FF22F0A9F8FEF7E3
:10254000D1F87047FCFF022000000020F8000020B6
:10255000D08F0408F800002020C60020FEE700000D
:1025600080B500AF0E4B1B680D4A43F40073136037
:102570000B4B1B680A4A43F480631360084B1B68CB
:10258000074A43F480731360032000F096FD002097
:10259000FFF74EFDFEF75CFF0023184680BD00BF2D
:1025A000003C024080B400AF064B1B781A46064B35
:1025B0001B681344044A136000BFBD465DF8047BEA
:1025C000704700BF0C000020D8C5002080B400AFC9
:1025D000034B1B681846BD465DF8047B704700BF7F
:1025E000D8C5002080B584B000AF7860FFF7EEFF5B
:1025F000B8607B68FB60FB68B3F1FF3F05D0094B17
:102600001B781A46FB681344FB6000BFFFF7DEFF30
:102610000246BB68D31AFA689A42F7D800BF10374F
:10262000BD4680BD0C00002080B584B000AF78604E
:102630007B68002B01D10123EDE07B6893F820300B
:10264000DBB2002B02D17868FEF72EFF7B681B6897
:102650001A687B681B6842F001021A60FFF7B6FF38
:10266000F86012E0FFF7B2FF0246FB68D31A0A2BAC
:102670000BD97B685B6A43F400327B685A627B68E3
:10268000052283F820200123C5E07B681B685B6876
:1026900003F00103002BE5D07B681B681A687B6898
:1026A0001B6822F002021A60FFF790FFF86012E048
:1026B000FFF78CFF0246FB68D31A0A2B0BD97B6805
:1026C0005B6A43F400327B685A627B68052283F8B8
:1026D000202001239FE07B681B685B6803F00203F6
:1026E000002BE5D17B681B7E012B08D17B681B6822
:1026F0001A687B681B6842F080021A6007E07B68FA
:102700001B681A687B681B6822F080021A607B686D
:102710005B7E012B08D17B681B681A687B681B688D
:1027200042F040021A6007E07B681B681A687B6809
:102730001B6822F040021A607B689B7E012B08D147
:102740007B681B681A687B681B6842F020021A606D
:1027500007E07B681B681A687B681B6822F0200210
:102760001A607B68DB7E012B08D17B681B681A68C6
:102770007B681B6822F010021A6007E07B681B6808
:102780001A687B681B6842F010021A607B681B7F26
:10279000012B08D17B681B681A687B681B6842F0B4
:1027A00008021A6007E07B681B681A687B681B6870
:1027B00022F008021A607B685B7F012B08D17B68DE
:1027C0001B681A687B681B6842F004021A6007E005
:1027D0007B681B681A687B681B6822F004021A6019
:1027E0007B689A687B68DB681A437B681B691A43BD
:1027F0007B685B6942EA03017B685B685A1E7B6801
:102800001B680A43DA617B6800225A627B680122F6
:1028100083F82020002318461037BD4680BD0000F5
:1028200080B487B000AF786039607B681B687B61DB
:102830007B6893F82030FB74FB7C012B03D0FB7C7E
:10284000022B40F0BE80654B7B617B69D3F8003280
:1028500043F001027B69C3F800227B69D3F80032A0
:1028600023F47C527B69C3F800227B69D3F80022F1
:102870003B685B6A1B021A437B69C3F800223B6812
:102880005B6903F01F03012202FA03F3FB607B691B
:10289000D3F81C22FB68DB431A407B69C3F81C2277
:1028A0003B68DB69002B23D17B69D3F80C22FB68E2
:1028B000DB431A407B69C3F80C223B68DB681904D0
:1028C0003B685B689BB23A68526919437B6948323E
:1028D00043F832103B689B6819043B681B689AB246
:1028E0003B685B690A4379694833DB000B445A60F3
:1028F0003B68DB69012B22D17B69D3F80C22FB6892
:102900001A437B69C3F80C223B681B6819043B68B7
:102910005B689BB23A68526919437B69483243F855
:1029200032103B689B6819043B68DB689AB23B68CD
:102930005B690A4379694833DB000B445A603B68A2
:102940009B69002B09D17B69D3F80422FB68DB4328
:102950001A407B69C3F8042207E07B69D3F804229C
:10296000FB681A437B69C3F804223B681B69002B90
:1029700009D17B69D3F81422FB68DB431A407B69D9
:10298000C3F8142207E07B69D3F81422FB681A43CA
:102990007B69C3F814223B681B6A012B07D17B6952
:1029A000D3F81C22FB681A437B69C3F81C227B699D
:1029B000D3F8003223F001027B69C3F80022002320
:1029C00006E07B685B6A43F480227B685A620123DD
:1029D00018461C37BD465DF8047B70470064004014
:1029E00080B584B000AF78607B6893F82030DBB2AC
:1029F000012B2ED17B68022283F820207B681B6884
:102A00001A687B681B6822F001021A60FFF7DEFD7E
:102A1000F86012E0FFF7DAFD0246FB68D31A0A2BD2
:102A20000BD97B685B6A43F400327B685A627B682F
:102A3000052283F82020012312E07B681B685B6875
:102A400003F00103002BE5D17B6800225A620023CA
:102A500006E07B685B6A43F400227B685A620123CC
:102A600018461037BD4680BD80B485B000AF786091
:102A700039607B6893F82030FB73FB7B012B02D01D
:102A8000FB7B022B09D17B681B6859697B681B683B
:102A90003A680A435A61002306E07B685B6A43F4A4
:102AA00080227B685A62012318461437BD465DF8C0
:102AB000047B704780B58AB000AF786000237B62EA
:102AC0007B681B685B693B627B681B685B68FB61BA
:102AD0007B681B689B68BB617B681B68DB687B61EC
:102AE0007B681B681B693B617B681B689B69FB609B
:102AF0003B6A03F00103002B7CD0BB6903F00103A8
:102B0000002B23D07B681B6801229A60BB6903F00D
:102B10000203002B03D0786800F07DF916E0BB6952
:102B200003F00403002B04D07B6A43F400637B6250
:102B30000CE0BB6903F00803002B04D07B6A43F46C
:102B400080537B6202E0786800F083F9BB6903F48C
:102B50008073002B24D07B681B684FF480729A60CE
:102B6000BB6903F40073002B03D0786800F05DF9B3
:102B700016E0BB6903F48063002B04D07B6A43F446
:102B800000537B620CE0BB6903F40063002B04D0AC
:102B90007B6A43F480437B6202E0786800F063F96B
:102BA000BB6903F48033002B24D07B681B684FF48F
:102BB00080329A60BB6903F40033002B03D078683D
:102BC00000F03DF916E0BB6903F48023002B04D02C
:102BD0007B6A43F400437B620CE0BB6903F400238F
:102BE000002B04D07B6A43F480337B6202E0786878
:102BF00000F043F93B6A03F00803002B0CD07B691B
:102C000003F01003002B07D07B6A43F400737B6250
:102C10007B681B681022DA603B6A03F00403002B18
:102C20000BD07B6903F00803002B06D07B681B6880
:102C30000822DA60786800F034F93B6A03F0020396
:102C4000002B09D07B681B68DB6803F00303002BB3
:102C500002D0786800F01BF93B6A03F04003002BB8
:102C60000CD03B6903F01003002B07D07B6A43F4C0
:102C700080637B627B681B6810221A613B6A03F0E9
:102C80002003002B0BD03B6903F00803002B06D078
:102C90007B681B6808221A61786800F016F93B6AA5
:102CA00003F01003002B09D07B681B681B6903F03D
:102CB0000303002B02D0786800F0FDF83B6A03F4B0
:102CC0000033002B0BD0FB6903F01003002B06D060
:102CD0007B681B6810225A60786800F000F93B6A34
:102CE00003F48033002B0BD0FB6903F00803002BA7
:102CF00006D07B681B6808225A60786800F0F9F8F3
:102D00003B6A03F40043002B75D0FB6903F0040316
:102D1000002B6CD03B6A03F48073002B08D0FB6857
:102D200003F00103002B03D07B6A43F001037B62B5
:102D30003B6A03F40073002B08D0FB6803F0020326
:102D4000002B03D07B6A43F002037B623B6A03F4EF
:102D50008063002B08D0FB6803F00403002B03D032
:102D60007B6A43F004037B623B6A03F40063002B3D
:102D70003DD0FB6803F07003002B38D0FB6803F0F4
:102D80007003302B17D0302B04D8102B09D0202BF8
:102D90000CD024E0502B18D0602B1BD0402B0FD030
:102DA0001DE07B6A43F008037B6218E07B6A43F016
:102DB00010037B6213E07B6A43F020037B620EE02A
:102DC0007B6A43F040037B6209E07B6A43F0800347
:102DD0007B6204E07B6A43F480737B6200BF7B68A4
:102DE0001B689A697B681B6822F070029A617B6895
:102DF0001B6804225A607B6A002B08D07B685A6AE1
:102E00007B6A1A437B685A62786800F07CF800BFDE
:102E10002837BD4680BD80B483B000AF786000BF66
:102E20000C37BD465DF8047B704780B483B000AFBB
:102E3000786000BF0C37BD465DF8047B704780B4F6
:102E400083B000AF786000BF0C37BD465DF8047BEF
:102E5000704780B483B000AF786000BF0C37BD46C8
:102E60005DF8047B704780B483B000AF786000BF2A
:102E70000C37BD465DF8047B704780B483B000AF6B
:102E8000786000BF0C37BD465DF8047B704780B4A6
:102E900083B000AF786000BF0C37BD465DF8047B9F
:102EA000704780B483B000AF786000BF0C37BD4678
:102EB0005DF8047B704780B483B000AF786000BFDA
:102EC0000C37BD465DF8047B704780B483B000AF1B
:102ED000786000BF0C37BD465DF8047B704780B456
:102EE00083B000AF786000BF0C37BD465DF8047B4F
:102EF000704780B483B000AF786000BF0C37BD4628
:102F00005DF8047B704780B483B000AF786000BF89
:102F10000C37BD465DF8047B7047000080B485B077
:102F200000AF78607B6803F00703FB600C4BDB6845
:102F3000BB60BA684FF6FF031340BB60FB681A0220
:102F4000BB68134343F0BF6343F40033BB60044AE0
:102F5000BB68D36000BF1437BD465DF8047B704783
:102F600000ED00E080B400AF044BDB681B0A03F007
:102F700007031846BD465DF8047B704700ED00E08E
:102F800080B483B000AF0346FB7197F90730002B84
:102F90000BDBFB7903F01F02074997F907305B0948
:102FA000012000FA02F241F8232000BF0C37BD4691
:102FB0005DF8047B704700BF00E100E080B483B09F
:102FC00000AF0346FB7197F90730002B10DBFB794C
:102FD00003F01F02094997F907305B09012000FA45
:102FE00002F2203341F82320BFF34F8FBFF36F8FDE
:102FF00000BF0C37BD465DF8047B704700E100E080
:1030000080B483B000AF03463960FB7197F9073095
:10301000002B0ADB3B68DAB20C4997F90730120142
:10302000D2B20B4483F800230AE03B68DAB20849C5
:10303000FB7903F00F03043B1201D2B20B441A7662
:1030400000BF0C37BD465DF8047B704700E100E02F
:1030500000ED00E080B489B000AFF860B9607A603C
:10306000FB6803F00703FB61FB69C3F10703042B53
:1030700028BF0423BB61FB690433062B02D9FB691B
:10308000033B00E000237B614FF0FF32BB6902FA93
:1030900003F3DA43BB681A407B699A404FF0FF3173
:1030A0007B6901FA03F3D9437B680B40134318464D
:1030B0002437BD465DF8047B704780B582B000AF11
:1030C00078607868FFF72AFF00BF0837BD4680BDEB
:1030D00080B586B000AF0346B9607A60FB73002309
:1030E0007B61FFF73FFF78617A68B9687869FFF71D
:1030F000B1FF024697F90F3011461846FFF780FFDF
:1031000000BF1837BD4680BD80B582B000AF034612
:10311000FB7197F907301846FFF732FF00BF0837F9
:10312000BD4680BD80B582B000AF0346FB7197F904
:1031300007301846FFF742FF00BF0837BD4680BD85
:1031400080B582B000AF78607B68002B01D101238D
:103150000EE07B685B79DBB2002B05D17B68002237
:103160001A717868FEF706FA7B6801225A7100230B
:1031700018460837BD4680BD80B586B000AF786080
:1031800000237B61FFF722FA38617B68002B01D1B5
:10319000012399E07B68022283F835207B680022B6
:1031A00083F834207B681B681A687B681B6822F0F0
:1031B00001021A600FE0FFF709FA02463B69D31AD1
:1031C000052B08D97B6820225A657B68032283F887
:1031D0003520032378E07B681B681B6803F001033C
:1031E000002BE8D17B681B681B687B617A69384BD0
:1031F00013407B617B685A687B689B681A437B68D5
:10320000DB681A437B681B691A437B685B691A4356
:103210007B689B691A437B68DB691A437B681B6A7E
:1032200013437A6913437B617B685B6A042B07D184
:103230007B68DA6A7B681B6B13437A6913437B6193
:103240007B681B687A691A607B681B685B697B61B5
:103250007B6923F007037B617B685B6A7A691343B0
:103260007B617B685B6A042B17D17B689B6A7A69F8
:1032700013437B617B68DB6A002B0ED0786800F01B
:103280006DFB0346002B08D07B6840225A657B68A3
:10329000012283F83520012316E07B681B687A69D8
:1032A0005A61786800F024FB0346FB607B68DB6DA5
:1032B0003F229A40FB689A607B6800225A657B68CF
:1032C000012283F83520002318461837BD4680BDFB
:1032D0003F8010F080B584B000AF78607B68002B31
:1032E00001D1012350E07B6893F83530DBB2022B2B
:1032F00001D1022348E07B681B681A687B681B6861
:1033000022F001021A607B681B6800221A607B6849
:103310001B6800225A607B681B6800229A607B68E9
:103320001B680022DA607B681B6800221A617B68D8
:103330001B6821225A61786800F0DAFA0346FB60C4
:103340007B680022DA637B6800221A647B680022B3
:103350005A647B6800229A647B680022DA647B6886
:1033600000221A657B68DB6D3F229A40FB689A60F9
:103370007B6800225A657B68002283F835207B68D1
:10338000002283F83420002318461037BD4680BD44
:1033900080B586B000AFF860B9607A603B6000230A
:1033A000FB75FB689B6D3B61FB6893F83430012B28
:1033B00001D1022340E0FB68012283F83420FB683E
:1033C00093F83530DBB2012B2FD1FB68022283F852
:1033D0003520FB6800225A653B687A68B968F8684E
:1033E00000F058FAFB68DB6D3F229A403B699A6017
:1033F000FB681B681A68FB681B6842F016021A60BB
:10340000FB681B6C002B07D0FB681B681A68FB6805
:103410001B6842F008021A60FB681B681A68FB68A8
:103420001B6842F001021A6005E0FB68002283F885
:1034300034200223FB75FB7D18461837BD4680BD3E
:1034400080B584B000AF78607B689B6DFB60FFF750
:10345000BDF8B8607B6893F83530DBB2022B08D03A
:103460007B6880225A657B68002283F83420012320
:1034700052E07B681B681A687B681B6822F01602A2
:103480001A607B681B685A697B681B6822F080029F
:103490005A617B681B6C002B03D17B689B6C002BF3
:1034A00007D07B681B681A687B681B6822F00802DB
:1034B0001A607B681B681A687B681B6822F001022F
:1034C0001A6013E0FFF782F80246BB68D31A052B97
:1034D0000CD97B6820225A657B68032283F835204B
:1034E0007B68002283F83420032315E07B681B6887
:1034F0001B6803F00103002BE4D17B68DB6D3F22E6
:103500009A40FB689A607B68012283F835207B68CB
:10351000002283F83420002318461037BD4680BDB2
:1035200080B483B000AF78607B6893F83530DBB24D
:10353000022B04D07B6880225A6501230CE07B6853
:10354000052283F835207B681B681A687B681B6836
:1035500022F001021A60002318460C37BD465DF8C0
:10356000047B704780B586B000AF78600023BB60F5
:10357000924B1B68924AA2FB03239B0A7B617B68E8
:103580009B6D3B613B691B68FB607B68DB6D0822C0
:103590009A40FB681340002B1AD07B681B681B689D
:1035A00003F00403002B13D07B681B681A687B6848
:1035B0001B6822F004021A607B68DB6D08229A40C7
:1035C0003B699A607B685B6D43F001027B685A65DA
:1035D0007B68DB6D01229A40FB681340002B12D000
:1035E0007B681B685B6903F08003002B0BD07B6852
:1035F000DB6D01229A403B699A607B685B6D43F00A
:1036000002027B685A657B68DB6D04229A40FB6886
:103610001340002B12D07B681B681B6803F0020369
:10362000002B0BD07B68DB6D04229A403B699A60CB
:103630007B685B6D43F004027B685A657B68DB6DD9
:1036400010229A40FB681340002B43D07B681B6814
:103650001B6803F00803002B3CD07B68DB6D102255
:103660009A403B699A607B681B681B6803F480235F
:10367000002B18D07B681B681B6803F40023002B09
:1036800008D17B681B6C002B24D07B681B6C78688E
:1036900098471FE07B689B6C002B1BD07B689B6C62
:1036A0007868984716E07B681B681B6803F4807392
:1036B000002B07D17B681B681A687B681B6822F0A7
:1036C00008021A607B681B6C002B03D07B681B6CA4
:1036D000786898477B68DB6D20229A40FB6813402E
:1036E000002B00F08E807B681B681B6803F01003C2
:1036F000002B00F086807B68DB6D20229A403B69BE
:103700009A607B6893F83530DBB2052B36D17B6845
:103710001B681A687B681B6822F016021A607B68B7
:103720001B685A697B681B6822F080025A617B68BB
:103730001B6C002B03D17B689B6C002B07D07B6834
:103740001B681A687B681B6822F008021A607B6895
:10375000DB6D3F229A403B699A607B68012283F8C7
:1037600035207B68002283F834207B681B6D002B9A
:103770007DD07B681B6D7868984778E07B681B6814
:103780001B6803F48023002B1CD07B681B681B681C
:1037900003F40023002B08D17B685B6C002B30D036
:1037A0007B685B6C786898472BE07B68DB6B002B51
:1037B00027D07B68DB6B7868984722E00400002004
:1037C000B5814E1B7B681B681B6803F48073002B5C
:1037D0000FD17B681B681A687B681B6822F0100297
:1037E0001A607B68012283F835207B68002283F809
:1037F00034207B68DB6B002B03D07B68DB6B786845
:1038000098477B685B6D002B32D07B685B6D03F063
:103810000103002B22D07B68052283F835207B68CA
:103820001B681A687B681B6822F001021A60BB687B
:103830000133BB607A699A4207D37B681B681B68B7
:1038400003F00103002BF2D100E000BF7B680122EE
:1038500083F835207B68002283F834207B68DB6C9A
:10386000002B05D07B68DB6C7868984700E000BFD0
:103870001837BD4680BD00BF80B483B000AF78600C
:103880007B6893F83530DBB218460C37BD465DF8DF
:10389000047B704780B485B000AFF860B9607A608F
:1038A0003B60FB681B681A68FB681B6822F4802277
:1038B0001A60FB681B683A685A60FB689B68402B7B
:1038C00008D1FB681B687A689A60FB681B68BA6855
:1038D000DA6007E0FB681B68BA689A60FB681B68DF
:1038E0007A68DA6000BF1437BD465DF8047B704724
:1038F00080B485B000AF78607B681B68DBB2103B9A
:10390000144AA2FB03231B09FB60134AFB68134400
:103910001B781A467B68DA65FB68032B09D97B683C
:103920001B6823F47F7323F003031A1D7B689A65D9
:1039300007E07B681B6823F47F7323F003037A6836
:1039400093657B689B6D18461437BD465DF8047B14
:10395000704700BFABAAAAAAF85B040880B485B080
:1039600000AF78600023FB737B689B6ABB607B6859
:103970009B69002B1FD1BB68032B55D801A252F8BD
:1039800023F000BF95390208A739020895390208CB
:10399000293A02087B68DB6A03F08073002B45D06C
:1039A0000123FB7342E07B68DB6AB3F1C07F3FD148
:1039B0000123FB733CE07B689B69B3F5005F21D179
:1039C000BB68032B36D801A252F823F0DD39020878
:1039D000E3390208DD390208F53902080123FB73D7
:1039E0002FE07B68DB6A03F08073002B24D0012377
:1039F000FB7321E07B68DB6AB3F1C07F1ED101233A
:103A0000FB731BE0BB68022B02D9032B03D018E029
:103A10000123FB7315E07B68DB6A03F08073002BE6
:103A20000ED00123FB730BE000BF0AE000BF08E0EB
:103A300000BF06E000BF04E000BF02E000BF00E0FE
:103A400000BFFB7B18461437BD465DF8047B70470A
:103A500080B582B000AF78607B68002B01D1012374
:103A60003BE07B6893F83930DBB2002B06D17B68F2
:103A7000002283F838207868FDF79EFD7B680222DB
:103A800083F839207B681B681B6823F440317B680E
:103A90005A687B681B680A431A607B681B685B6B0B
:103AA00023F007017B689A687B681B680A435A63A6
:103AB0007B681B681B6C23F47F5323F03F037A68F9
:103AC000D1687A6812680B4313647B680022DA635A
:103AD0007B68012283F83920002318460837BD4649
:103AE00080BD80B584B000AF78607B681B685B6880
:103AF000FB607B681B681B68BB60FB6803F001030D
:103B0000002B26D0BB6803F48073002B21D07B6888
:103B10001B681A687B681B6822F480721A607B68D5
:103B2000DB6B43F001027B68DA637B681B68012270
:103B30009A607B68042283F839207B68002283F82E
:103B400038207B685B69002B03D07B685B697868F1
:103B50009847FB6803F02003002B26D0BB6803F4D2
:103B60000053002B21D07B681B681A687B681B6898
:103B700022F400521A607B681B6820229A607B68DE
:103B8000DB6B43F002027B68DA637B68042283F814
:103B900039207B68002283F838207B685B69002B22
:103BA00003D07B685B6978689847FB6803F008037B
:103BB000002B26D0BB6803F40063002B21D07B6868
:103BC0001B681A687B681B6822F400621A607B68B5
:103BD0001B6808229A607B68DB6B43F004027B68F9
:103BE000DA637B68042283F839207B68002283F83B
:103BF00038207B685B69002B03D07B685B69786841
:103C00009847FB6803F00403002B13D0BB6803F450
:103C10008063002B0ED07B681B681A687B681B686A
:103C200022F480621A607B681B6804229A607868BC
:103C300000F053F8FB6803F00203002B24D0BB68AC
:103C400003F40073002B1FD07B681B681A687B6825
:103C50001B6822F400721A607B681B6802229A605B
:103C60007B68DA6B7B68DA637B68012283F8392032
:103C70007B68002283F838207B681B69002B03D007
:103C80007B681B6978689847FB6803F01003002B7A
:103C90001FD0BB6803F48053002B1AD07B681B68CD
:103CA0001A687B681B6822F480521A607B681B6864
:103CB00010229A607B68DA6B7B68DA637B6801228A
:103CC00083F839207B68002283F83820786800F078
:103CD0000EF800BF1037BD4680BD80B483B000AF82
:103CE000786000BF0C37BD465DF8047B704780B438
:103CF00083B000AF786000BF0C37BD465DF8047B31
:103D00007047000080B487B000AF786039607B688E
:103D10005B68B3F5403F7B6893F83830012B01D1E5
:103D2000022379E07B68012283F838207B68022235
:103D300083F839203B681B0118337A6813443B61D0
:103D40003B695A683B699B681B0413437B61354B95
:103D5000FB603B695B680A2B03D03B695B68092BFE
:103D600007D13B69DB6803F07F437A6913437B61CA
:103D700005E03B69DB681B067A6913437B613B689E
:103D8000002B20D17B681B685A6AFB68DB4302EA80
:103D900003017B681B687A690A435A627B681B6867
:103DA0003A6912689A613B695B680A2B03D03B69E8
:103DB0005B68092B27D13B69DA687B681B6822F0B6
:103DC0007F429A621FE07B681B68DA69FB68DB430D
:103DD00002EA03017B681B687A690A43DA617B683F
:103DE0001B683A6912681A613B695B680A2B03D049
:103DF0003B695B68092B06D13B69DA687B681B6805
:103E000022F07F421A627B68012283F839207B68A6
:103E1000002283F83820002318461C37BD465DF881
:103E2000047B70470F0003FF80B489B000AF786057
:103E3000396000237B6100233B610023BB610023C9
:103E4000FB6177E10122FB6902FA03F37B613B68C6
:103E50001B687A6913403B613A697B699A4240F07A
:103E600066813B685B6803F00303012B05D03B6868
:103E70005B6803F00303022B30D17B689B68BB6156
:103E8000FB695B00032202FA03F3DB43BA691340C8
:103E9000BB613B68DA68FB695B0002FA03F3BA694D
:103EA0001343BB617B68BA699A607B685B68BB61DE
:103EB0000122FB6902FA03F3DB43BA691340BB61D9
:103EC0003B685B681B0903F00102FB6902FA03F31C
:103ED000BA691343BB617B68BA695A603B685B6827
:103EE00003F00303032B17D07B68DB68BB61FB691E
:103EF0005B00032202FA03F3DB43BA691340BB61A0
:103F00003B689A68FB695B0002FA03F3BA691343E2
:103F1000BB617B68BA69DA603B685B6803F00303E6
:103F2000022B23D1FB69DA087B68083253F8223070
:103F3000BB61FB6903F007039B000F2202FA03F346
:103F4000DB43BA691340BB613B681A69FB6903F044
:103F500007039B0002FA03F3BA691343BB61FB69D1
:103F6000DA087B680832B96943F822107B681B685D
:103F7000BB61FB695B00032202FA03F3DB43BA690E
:103F80001340BB613B685B6803F00302FB695B00A5
:103F900002FA03F3BA691343BB617B68BA691A601A
:103FA0003B685B6803F44033002B00F0C0800023C3
:103FB000FB60654B5B6C644A43F480435364624B23
:103FC0005B6C03F48043FB60FB68604AFB699B0801
:103FD000023352F82330BB61FB6903F003039B00FB
:103FE0000F2202FA03F3DB43BA691340BB617B681B
:103FF000574A934237D07B68564A934231D07B6808
:10400000554A93422BD07B68544A934225D07B6813
:10401000534A93421FD07B68524A934219D07B681F
:10402000514A934213D07B68504A93420DD07B682B
:104030004F4A934207D07B684E4A934201D10923ED
:1040400012E00A2310E008230EE007230CE0062309
:104050000AE0052308E0042306E0032304E002232A
:1040600002E0012300E00023FA6902F0030292005B
:104070009340BA691343BB613449FB699B0802331F
:10408000BA6941F823203C4B1B68BB613B69DB43A9
:10409000BA691340BB613B685B6803F48033002B53
:1040A00003D0BA693B691343BB61334ABB691360F0
:1040B000314B5B68BB613B69DB43BA691340BB6151
:1040C0003B685B6803F40033002B03D0BA693B699B
:1040D0001343BB61284ABB695360274B9B68BB6194
:1040E0003B69DB43BA691340BB613B685B6803F41F
:1040F0008013002B03D0BA693B691343BB611E4A8E
:10410000BB6993601C4BDB68BB613B69DB43BA69ED
:104110001340BB613B685B6803F40013002B03D0C2
:10412000BA693B691343BB61134ABB69D360FB693E
:104130000133FB61FB690F2B7FF684AE00BF243790
:10414000BD465DF8047B70470038024000380140EE
:10415000000002400004024000080240000C02403F
:10416000001002400014024000180240001C0240EF
:104170000020024000240240003C014080B487B08F
:1041800000AF7860396000233B610023FB600023AF
:10419000BB6000237B61D9E001227B6902FA03F353
:1041A0003B613A683B691340FB60FA683B699A429D
:1041B00040F0C9806A4A7B699B08023352F8233079
:1041C000BB607B6903F003039B000F2202FA03F339
:1041D000BA681340BB607B68624A934237D07B6801
:1041E000614A934231D07B68604A93422BD07B680E
:1041F0005F4A934225D07B685E4A93421FD07B681A
:104200005D4A934219D07B685C4A934213D07B6825
:104210005B4A93420DD07B685A4A934207D07B6831
:10422000594A934201D1092312E00A2310E00823DE
:104230000EE007230CE006230AE0052308E0042330
:1042400006E0032304E0022302E0012300E0002350
:104250007A6902F0030292009340BA689A4232D11E
:104260004A4B1A68FB68DB43484913400B60474BD5
:104270005A68FB68DB43454913404B60434B9A68DF
:10428000FB68DB43414913408B60404BDA68FB68B5
:10429000DB433E491340CB607B6903F003039B0083
:1042A0000F2202FA03F3BB602D4A7B699B0802339D
:1042B00052F82310BB68DA4329487B699B080A40FF
:1042C000023340F823207B681A687B695B00032176
:1042D00001FA03F3DB431A407B681A607B69DA0852
:1042E0007B68083253F822107B6903F007039B00B8
:1042F0000F2202FA03F3DB437A69D20819407B6884
:10430000083243F822107B68DA687B695B0003217E
:1043100001FA03F3DB431A407B68DA607B685A6872
:1043200001217B6901FA03F3DB431A407B685A6081
:104330007B689A687B695B00032101FA03F3DB4326
:104340001A407B689A607B6901337B617B690F2B24
:104350007FF622AF00BF1C37BD465DF8047B704777
:104360000038014000000240000402400008024002
:10437000000C0240001002400014024000180240ED
:10438000001C02400020024000240240003C01408A
:1043900080B483B000AF78600B467B8013467B709F
:1043A0007B78002B03D07A887B689A6103E07B8856
:1043B0001A047B689A6100BF0C37BD465DF8047B28
:1043C0007047000080B584B000AF78607B68002B38
:1043D00001D101231FE17B6893F83D30DBB2002B54
:1043E00006D17B68002283F83C207868FDF70CF941
:1043F0007B68242283F83D207B681B681A687B68F1
:104400001B6822F001021A607B681B681A687B68CF
:104410001B6842F400421A607B681B681A687B685C
:104420001B6822F400421A6003F0E4FEF8607B6827
:104430005B687B4A934207D8FB687A4A934294BFF1
:1044400001230023DBB206E0FB68774A934294BF66
:1044500001230023DBB2002B01D00123DBE0FB684A
:10446000724AA2FB03239B0CBB607B681B685B68E2
:1044700023F03F017B681B68BA680A435A607B6877
:104480001B681B6A23F03F017B685B68644A9342A8
:1044900002D8BB68013309E0BB684FF4967202FB97
:1044A00003F3634AA2FB03239B0901337A68126872
:1044B0000B4313627B681B68DB6923F44F4222F0D5
:1044C000FF027B685B6856498B420DD8FB68591E1A
:1044D0007B685B685B00B1FBF3F30133C3F30B0351
:1044E000042B38BF04234FE07B689B68002B11D15D
:1044F000FB68581E7B6859680B465B000B44B0FB99
:10450000F3F30133C3F30B03002B0CBF0123002390
:10451000DBB212E0FB68581E7B6859680B469B00B3
:104520000B4499000B44B0FBF3F30133C3F30B03CB
:10453000002B0CBF01230023DBB2002B01D0012391
:1045400022E07B689B68002B0ED1FB68581E7B68BD
:1045500059680B465B000B44B0FBF3F30133C3F324
:104560000B0343F400430FE0FB68581E7B68596857
:104570000B469B000B4499000B44B0FBF3F3013353
:10458000C3F30B0343F44043796809681343CB61D9
:104590007B681B681B6823F0C0017B68DA697B6855
:1045A0001B6A1A437B681B680A431A607B681B6896
:1045B0009B6823F4034323F0FF037A6811697A6848
:1045C000D26811437A6812680B4393607B681B685A
:1045D000DB6823F0FF017B685A697B689B691A439B
:1045E0007B681B680A43DA607B681B681A687B6813
:1045F0001B6842F001021A607B6800221A647B6823
:10460000202283F83D207B6800221A637B68002209
:1046100083F83E20002318461037BD4680BD00BFFA
:10462000A08601007F841E00FF083D0083DE1B433F
:10463000D34D621080B582B000AF78607B68002BEC
:1046400001D1012321E07B68242283F83D207B688F
:104650001B681A687B681B6822F001021A60786880
:10466000FDF756F87B6800221A647B68002283F805
:104670003D207B6800221A637B68002283F83E207D
:104680007B68002283F83C20002318460837BD468B
:1046900080BD000080B58CB002AFF8607A601A4629
:1046A0000B467B8113463B81FDF790FF7862FB68E8
:1046B00093F83D30DBB2202B40F00B827B6A0093F5
:1046C000192301227C49F86802F06AFA0346002B9C
:1046D00001D00223FEE1FB6893F83C30012B01D1AD
:1046E0000223F7E1FB68012283F83C20FB681B688A
:1046F0001B6803F00103012B07D0FB681B681A68D5
:10470000FB681B6842F001021A60FB681B681A68AC
:10471000FB681B6822F400621A60FB68222283F89F
:104720003D20FB68102283F83E20FB6800221A64BB
:10473000FB687A685A62FB683A895A85FB685B8D28
:104740009AB2FB681A85FB685C4ADA6279897B6AEF
:104750003A6BF86801F0C6FF0346002B01D0012335
:10476000B8E1FB681B8D002B13D100233B62FB6873
:104770001B685B693B62FB681B689B693B623B6A29
:10478000FB681B681A68FB681B6842F400721A60B9
:104790008CE1FB681B8D012B1BD1FB681B681A6821
:1047A000FB681B6822F480621A600023FB61FB68CF
:1047B0001B685B69FB61FB681B689B69FB61FB69AC
:1047C000FB681B681A68FB681B6842F400721A6079
:1047D0006CE1FB681B8D022B1BD1FB681B681A6800
:1047E000FB681B6822F480621A60FB681B681A6809
:1047F000FB681B6842F400621A600023BB61FB681F
:104800001B685B69BB61FB681B689B69BB61BB691B
:104810004CE1FB681B681A68FB681B6842F4806205
:104820001A6000237B61FB681B685B697B61FB6826
:104830001B689B697B617B6938E1FB681B8D032BDF
:1048400000F2F180FB681B8D012B23D17A6A396B52
:10485000F86802F0EFFA0346002B01D0012339E19A
:10486000FB681B681A69FB685B6AD2B21A70FB6846
:104870005B6A5A1CFB685A62FB681B8D013B9AB24B
:10488000FB681A85FB685B8D9BB2013B9AB2FB68A3
:104890005A850BE1FB681B8D022B4ED17B6A00937E
:1048A0003B6B00220649F86802F07AF90346002BB8
:1048B00008D001230EE100BF020010000000FFFF3E
:1048C00004000100FB681B681A68FB681B6842F45F
:1048D00000721A60FB681B681A69FB685B6AD2B2D7
:1048E0001A70FB685B6A5A1CFB685A62FB681B8D76
:1048F000013B9AB2FB681A85FB685B8D9BB2013B5A
:104900009AB2FB685A85FB681B681A69FB685B6A88
:10491000D2B21A70FB685B6A5A1CFB685A62FB6869
:104920001B8D013B9AB2FB681A85FB685B8D9BB2BD
:10493000013B9AB2FB685A85B8E07B6A00933B6BF7
:1049400000226649F86802F02BF90346002B01D0DB
:104950000123BFE0FB681B681A68FB681B6822F430
:1049600080621A60FB681B681A69FB685B6AD2B2D6
:104970001A70FB685B6A5A1CFB685A62FB681B8DE5
:10498000013B9AB2FB681A85FB685B8D9BB2013BC9
:104990009AB2FB685A857B6A00933B6B00224F49B1
:1049A000F86802F0FDF80346002B01D0012391E0E6
:1049B000FB681B681A68FB681B6842F400721A6087
:1049C000FB681B681A69FB685B6AD2B21A70FB68E5
:1049D0005B6A5A1CFB685A62FB681B8D013B9AB2EA
:1049E000FB681A85FB685B8D9BB2013B9AB2FB6842
:1049F0005A85FB681B681A69FB685B6AD2B21A7039
:104A0000FB685B6A5A1CFB685A62FB681B8D013BA2
:104A10009AB2FB681A85FB685B8D9BB2013B9AB228
:104A2000FB685A8542E07A6A396BF86802F002FA4C
:104A30000346002B01D001234CE0FB681B681A6978
:104A4000FB685B6AD2B21A70FB685B6A5A1CFB682F
:104A50005A62FB681B8D013B9AB2FB681A85FB68A2
:104A60005B8D9BB2013B9AB2FB685A85FB681B6861
:104A70005B6903F00403042B18D1FB681B681A69F7
:104A8000FB685B6AD2B21A70FB685B6A5A1CFB68EF
:104A90005A62FB681B8D013B9AB2FB681A85FB6862
:104AA0005B8D9BB2013B9AB2FB685A85FB681B8DFC
:104AB000002B7FF4C2AEFB68202283F83D20FB6808
:104AC000002283F83E20FB68002283F83C2000236C
:104AD00000E0022318462837BD4680BD04000100CF
:104AE00080B58CB002AFF860084611461A460346FE
:104AF0007B810B463B811346FB80FDF767FD7862A7
:104B0000FB6893F83D30DBB2202B40F008827B6AD3
:104B10000093192301227B49F86802F041F803460B
:104B2000002B01D00223FBE1FB6893F83C30012B02
:104B300001D10223F4E1FB68012283F83C20FB68E9
:104B40001B681B6803F00103012B07D0FB681B687F
:104B50001A68FB681B6842F001021A60FB681B6858
:104B60001A68FB681B6822F400621A60FB68222244
:104B700083F83D20FB68402283F83E20FB6800223A
:104B80001A64FB683A6B5A62FB68BA8E5A85FB68F6
:104B90005B8D9AB2FB681A85FB685B4ADA62F8881B
:104BA0003A8979897B6A0193BB6B00930346F86865
:104BB00001F066FE0346002B01D00123B0E1FB6843
:104BC0001B8D002B13D100233B62FB681B685B69C4
:104BD0003B62FB681B689B693B623B6AFB681B6826
:104BE0001A68FB681B6842F400721A6084E1FB6873
:104BF0001B8D012B1BD1FB681B681A68FB681B68A7
:104C000022F480621A600023FB61FB681B685B6909
:104C1000FB61FB681B689B69FB61FB69FB681B68A8
:104C20001A68FB681B6842F400721A6064E1FB6852
:104C30001B8D022B1BD1FB681B681A68FB681B6865
:104C400022F480621A60FB681B681A68FB681B68A4
:104C500042F400621A600023BB61FB681B685B6959
:104C6000BB61FB681B689B69BB61BB6944E10023B6
:104C70007B61FB681B685B697B61FB681B689B69E8
:104C80007B617B6938E1FB681B8D032B00F2F180AF
:104C9000FB681B8D012B23D17A6AB96BF86802F08F
:104CA000C9F80346002B01D0012339E1FB681B68DA
:104CB0001A69FB685B6AD2B21A70FB685B6A5A1C9D
:104CC000FB685A62FB681B8D013B9AB2FB681A8530
:104CD000FB685B8D9BB2013B9AB2FB685A850BE186
:104CE000FB681B8D022B4ED17B6A0093BB6B0022AD
:104CF0000649F86801F054FF0346002B08D0012351
:104D00000EE100BF020010000000FFFF04000100E0
:104D1000FB681B681A68FB681B6842F400721A6023
:104D2000FB681B681A69FB685B6AD2B21A70FB6881
:104D30005B6A5A1CFB685A62FB681B8D013B9AB286
:104D4000FB681A85FB685B8D9BB2013B9AB2FB68DE
:104D50005A85FB681B681A69FB685B6AD2B21A70D5
:104D6000FB685B6A5A1CFB685A62FB681B8D013B3F
:104D70009AB2FB681A85FB685B8D9BB2013B9AB2C5
:104D8000FB685A85B8E07B6A0093BB6B00226649DA
:104D9000F86801F005FF0346002B01D00123BFE0B6
:104DA000FB681B681A68FB681B6822F480621A6043
:104DB000FB681B681A69FB685B6AD2B21A70FB68F1
:104DC0005B6A5A1CFB685A62FB681B8D013B9AB2F6
:104DD000FB681A85FB685B8D9BB2013B9AB2FB684E
:104DE0005A857B6A0093BB6B00224F49F86801F03B
:104DF000D7FE0346002B01D0012391E0FB681B681E
:104E00001A68FB681B6842F400721A60FB681B6832
:104E10001A69FB685B6AD2B21A70FB685B6A5A1C3B
:104E2000FB685A62FB681B8D013B9AB2FB681A85CE
:104E3000FB685B8D9BB2013B9AB2FB685A85FB68AD
:104E40001B681A69FB685B6AD2B21A70FB685B6AFE
:104E50005A1CFB685A62FB681B8D013B9AB2FB68C7
:104E60001A85FB685B8D9BB2013B9AB2FB685A8541
:104E700042E07A6AB96BF86801F0DCFF0346002B68
:104E800001D001234CE0FB681B681A69FB685B6A70
:104E9000D2B21A70FB685B6A5A1CFB685A62FB68E4
:104EA0001B8D013B9AB2FB681A85FB685B8D9BB238
:104EB000013B9AB2FB685A85FB681B685B6903F08B
:104EC0000403042B18D1FB681B681A69FB685B6A32
:104ED000D2B21A70FB685B6A5A1CFB685A62FB68A4
:104EE0001B8D013B9AB2FB681A85FB685B8D9BB2F8
:104EF000013B9AB2FB685A85FB681B8D002B7FF43F
:104F0000C2AEFB68202283F83D20FB68002283F8B4
:104F10003E20FB68002283F83C20002300E00223AF
:104F200018462837BD4680BD0400010080B588B012
:104F300000AF78600023BB617B681B685B687B61A6
:104F40007B68DB6A3B617B6893F83E30FB737B6870
:104F500093F83D30BB73FB7B102B03D0FB7B402BC6
:104F600040F0C1807B681B689B69BB617B681B68E4
:104F70005B69FB61FB6903F00103002B0DD13B6909
:104F8000B3F52A0F03D03B69B3F12A4F01D10123B6
:104F900000E00023012B00F03281FB6903F00103E4
:104FA000002B0CD07B695B0A03F00103002B06D0B9
:104FB000786801F0C4FF786800F079FD92E0FB6941
:104FC000DB0803F00103002B09D07B695B0A03F0C7
:104FD0000103002B03D0786800F0EFFD82E0FB694D
:104FE0005B0803F00103002B09D07B695B0A03F027
:104FF0000103002B03D0786800F009FE72E0BB6962
:105000009B0803F00103002B3BD07B681B685B68A7
:1050100003F40063B3F5006F00F0F380FB69DB0974
:1050200003F00103002B0FD07B699B0A03F00103FF
:10503000002B09D0FB699B0803F00103002B03D16F
:10504000786800F0F3F94DE0FB699B0803F0010379
:10505000002B00F0D6807B695B0A03F00103002B74
:1050600000F0CF80BB7B212B03D1786800F07AFA67
:10507000C7E0FB7B402B40F0C480786800F0E8FA82
:10508000BFE07B681B685B6803F40063B3F5006FE7
:1050900000F0B780FB699B0903F00103002B0FD0E0
:1050A0007B699B0A03F00103002B09D0FB699B0875
:1050B00003F00103002B03D1786800F05DFB11E0E1
:1050C000FB699B0803F00103002B00F09A807B69C9
:1050D0005B0A03F00103002B00F09380786800F076
:1050E000FCFB8EE08DE07B681B6C002B04D07B68A2
:1050F0001B685B69FB6107E07B681B689B69BB61A0
:105100007B681B685B69FB61FB695B0803F001035B
:10511000002B12D07B695B0A03F00103002B0CD03B
:105120007B681B6C002B03D07B681B689B69BB6191
:10513000B969786800F0BAFF66E0FB691B0903F003
:105140000103002B09D07B695B0A03F00103002BEC
:1051500003D0786800F0F4FF56E0BB7B212B02D02F
:10516000BB7B292B25D1FB69DB0903F00103002B55
:105170000FD07B699B0A03F00103002B09D0FB6968
:105180009B0803F00103002B03D1786800F0D0FEE8
:1051900039E0FB699B0803F00103002B33D07B69E6
:1051A0005B0A03F00103002B2DD0786800F0FDFEB0
:1051B00029E0FB699B0903F00103002B0FD07B69F9
:1051C0009B0A03F00103002B09D0FB699B0803F045
:1051D0000103002B03D1786800F008FF14E0FB699D
:1051E0009B0803F00103002B0ED07B695B0A03F0E0
:1051F0000103002B08D0786800F036FF04E000BF00
:1052000002E000BF00E000BF2037BD4680BD80B592
:105210008AB000AF78607B681B685B693B627B6823
:105220001B685B68FB6100237B627B6893F83E3000
:10523000FB763B6A1B0A03F00103002B0ED0FB69CF
:105240001B0A03F00103002B08D07B6A43F0010323
:105250007B627B681B686FF480725A613B6A5B0AF1
:1052600003F00103002B0ED0FB691B0A03F00103BE
:10527000002B08D07B6A43F002037B627B681B68CB
:105280006FF400725A613B6A9B0A03F00103002B22
:105290003FD0FB691B0A03F00103002B39D0FB7ED2
:1052A000BB767B685B8D9BB27B617B6893F83D30FE
:1052B000FB747B681B6BFB60BB7E202B12D17B6970
:1052C000002B0FD1FB7C212B08D0FB7C292B05D098
:1052D000FB7C282B06D1FB68212B03D1786801F0D9
:1052E0005FF816E07B681B686FF480625A617B6A26
:1052F00043F004037B62FB7E102B02D0FB7E402B2D
:1053000007D17B681B681A687B681B6842F40072CF
:105310001A603B6ADB0A03F00103002B0ED0FB6925
:105320001B0A03F00103002B08D07B6A43F008033B
:105330007B627B681B686FF400625A617B6A002B9A
:1053400008D07B681A6C7B6A1A437B681A64786899
:1053500001F096F800BF2837BD4680BD80B483B009
:1053600000AF786000BF0C37BD465DF8047B704726
:1053700080B483B000AF786000BF0C37BD465DF8E5
:10538000047B704780B483B000AF786000BF0C37F7
:10539000BD465DF8047B704780B483B000AF786091
:1053A00000BF0C37BD465DF8047B704780B483B006
:1053B00000AF78600B46FB7013463B8000BF0C3794
:1053C000BD465DF8047B704780B483B000AF786061
:1053D00000BF0C37BD465DF8047B704780B483B0D6
:1053E00000AF786000BF0C37BD465DF8047B7047A6
:1053F00080B483B000AF786000BF0C37BD465DF865
:10540000047B704780B483B000AF786000BF0C3776
:10541000BD465DF8047B704780B483B000AF786010
:1054200000BF0C37BD465DF8047B704780B584B083
:1054300000AF78607B6893F83D30FB737B6893F82E
:105440003E30BB737B68DB6ABB607B681B8D002BC7
:1054500050D1FB7B212B4DD1BB68082B1DD0BB68E5
:10546000202B1AD0BB6813F5803F16D07B681B68D1
:105470005A687B681B6822F4E0625A607B681122DC
:105480001A637B68002283F83E207B68202283F821
:105490003D207868FFF762FF60E07B681B685A6810
:1054A0007B681B6822F4E0625A607B681B681A689C
:1054B0007B681B6842F400721A607B6800221A63E2
:1054C0007B68202283F83D207B6893F83E30DBB276
:1054D000402B07D17B68002283F83E207868FFF7D5
:1054E0007DFF3BE07B68002283F83E207868FFF771
:1054F00035FF33E0FB7B212B05D0BB7B402B2DD12F
:10550000FB7B222B2AD17B685B8D9BB2002B08D1C1
:105510007B681B685A687B681B6822F480625A604B
:105520001CE07B6893F83E30DBB2402B03D17868F7
:1055300000F08EF812E07B685B6A1A787B681B6863
:105540001A617B685B6A5A1C7B685A627B685B8D58
:105550009BB2013B9AB27B685A85FFE700BF1037C8
:10556000BD4680BD80B584B000AF78607B68DB6AE3
:10557000FB607B6893F83D30DBB2212B64D17B6804
:105580005B8D9BB2002B12D07B685B6A1A787B68BC
:105590001B681A617B685B6A5A1C7B685A627B686D
:1055A0005B8D9BB2013B9AB27B685A854CE0FB68ED
:1055B000082B1DD0FB68202B1AD0FB6813F5803F09
:1055C00016D07B681B685A687B681B6822F4E0620F
:1055D0005A607B6811221A637B68002283F83E20A0
:1055E0007B68202283F83D207868FFF7B7FE2BE028
:1055F0007B681B685A687B681B6822F4E0625A600B
:105600007B681B681A687B681B6842F400721A602A
:105610007B6800221A637B68202283F83D207B6828
:1056200093F83E30DBB2402B07D17B68002283F831
:105630003E207868FFF7D2FE06E07B68002283F800
:105640003E207868FFF78AFE00BF1037BD4680BD58
:1056500080B584B000AF78607B6893F83D30FB7311
:105660007B681B6D002B1DD17B68DB6C012B0BD184
:105670007B689B6CDAB27B681B681A617B681B6D68
:105680009A1C7B681A6573E07B689B6C9BB21B124B
:10569000DAB27B681B681A617B681B6D5A1C7B68D9
:1056A0001A6565E07B681B6D012B0BD17B689B6CD9
:1056B000DAB27B681B681A617B681B6D5A1C7B68B9
:1056C0001A6555E07B681B6D022B51D1FB7B222BA9
:1056D0000DD17B681B681A687B681B6842F4807276
:1056E0001A607B681B6D5A1C7B681A6540E07B68FA
:1056F0005B8D9BB2002B15D0FB7B212B12D17B68DD
:105700005B6A1A787B681B681A617B685B6A5A1C43
:105710007B685A627B685B8D9BB2013B9AB27B6867
:105720005A8525E07B685B8D9BB2002B20D1FB7BEB
:10573000212B1DD17B681B685A687B681B6822F48B
:10574000E0625A607B681B681A687B681B6842F4D9
:1057500000721A607B6800221A637B68202283F83B
:105760003D207B68002283F83E207868FFF736FEF4
:1057700000BF1037BD4680BD80B584B000AF7860F3
:105780007B6893F83D30DBB2222B40F0A2807B682F
:105790005B8D9BB2FB60FB68032B21D97B681B6888
:1057A0001A697B685B6AD2B21A707B685B6A5A1CA2
:1057B0007B685A627B685B8D9BB2013B9AB27B68C7
:1057C0005A857B685B8D9BB2032B40F082807B689F
:1057D0001B685A687B681B6822F480625A6078E014
:1057E0007B68DB6A022B74D0FB68012B02D0FB685C
:1057F000002B6ED1786801F0EBFA0346002B42D102
:105800007B681B681A687B681B6822F480621A60D8
:105810007B681B685A687B681B6822F4E0625A60E8
:105820007B681B681A697B685B6AD2B21A707B68F6
:105830005B6A5A1C7B685A627B685B8D9BB2013B3A
:105840009AB27B685A857B68202283F83D207B686A
:1058500093F83E30DBB2402B0AD17B68002283F8FC
:105860003E207B6800221A637868FFF7C1FD30E0B4
:105870007B68002283F83E207B6812221A637868D6
:10588000FFF776FD25E07B681B685A687B681B681C
:1058900022F4E0625A607B681B681A697B685B6A65
:1058A000D2B21A707B685B6A5A1C7B685A627B684A
:1058B0005B8D9BB2013B9AB27B685A857B68202244
:1058C00083F83D207B68002283F83E207868FFF74C
:1058D00099FD00BF1037BD4680BD80B584B000AFD4
:1058E00078607B68DB6AFB607B685B8D9BB2042B16
:1058F0001BD17B681B685A687B681B6822F4806236
:105900005A607B681B681A697B685B6AD2B21A703E
:105910007B685B6A5A1C7B685A627B685B8D9BB2B2
:10592000013B9AB27B685A85BDE07B685B8D9BB278
:10593000032B29D17B681B685A687B681B6822F49B
:1059400080625A60FB68042B0AD0FB68022B07D0E8
:105950007B681B681A687B681B6822F480621A6087
:105960007B681B681A697B685B6AD2B21A707B68B5
:105970005B6A5A1C7B685A627B685B8D9BB2013BF9
:105980009AB27B685A858EE07B685B8D9BB2022B56
:1059900076D1FB68012B02D0FB68102B08D17B6805
:1059A0001B681A687B681B6822F480621A6019E021
:1059B000FB68042B02D0FB68022B08D17B681B68B4
:1059C0001A687B681B6842F480621A600AE0FB6810
:1059D000102B07D07B681B681A687B681B6842F431
:1059E00000721A607B681B681A697B685B6AD2B2B6
:1059F0001A707B685B6A5A1C7B685A627B685B8D95
:105A00009BB2013B9AB27B685A857B681B681A6916
:105A10007B685B6AD2B21A707B685B6A5A1C7B68CF
:105A20005A627B685B8D9BB2013B9AB27B685A8558
:105A30007B681B685A687B681B6822F440725A6056
:105A40007B68202283F83D207B6893F83E30DBB2F0
:105A5000402B0AD17B68002283F83E207B6800221D
:105A60001A637868FFF7C4FC1DE07B68002283F8A6
:105A70003E207B6812221A637868FFF779FC12E0F7
:105A80007B681B681A697B685B6AD2B21A707B6894
:105A90005B6A5A1C7B685A627B685B8D9BB2013BD8
:105AA0009AB27B685A8500BF1037BD4680BD80B46E
:105AB00083B000AF78607B6893F83E30DBB2402B58
:105AC00017D17B681B6D002B09D17B685B6CDBB247
:105AD0001A467B681B6802F0FE021A6167E07B6869
