:020000040800F2
:20000000FCFF022049240008A9200008AF200008B5200008BB200008C120000800000000FD
:20002000000000000000000000000000C7200008D520000800000000E3200008F1200008B0
:20004000992400089924000899240008992400089924000899240008992400089924000878
:20006000992400089924000899240008992400089924000899240008992400089924000858
:20008000992400089924000899240008992400089924000899240008992400089924000838
:2000A0009924000899240008992400089924000801210008992400089924000899240008B3
:2000C000992400089924000899240008152100089924000829210008992400083D21000851
:2000E0009924000899240008992400089924000899240008992400089924000899240008D8
:20010000992400089924000851210008992400089924000899240008992400086521000839
:200120007921000899240008992400088D21000899240008992400089924000899240008C9
:20014000A1210008B521000899240008992400089924000899240008992400089924000859
:2001600099240008992400089924000899240008992400089924000899240008000000001C
:20018000992400089924000899240008992400089924000899240008992400089924000837
:2001A000C9210008DD210008F121000800000000000000000000000000000000000000002D
:2001C00000000000000000000000000000000000000000000000000000000000000000001F
:2001E0000000000000000000000000000000000000000000000000000000000000000000FF
:200200000000000000000000000000000000000000000000000000000000000000000000DE
:200220000000000000000000000000000000000000000000000000000000000000000000BE
:2002400000000000000000000000000000000000000000000000000000000000000000009E
:2002600000000000000000000000000000000000000000000000000000000000000000007E
:2002800000000000000000000000000000000000000000000000000000000000000000005E
:2002A00000000000000000000000000000000000000000000000000000000000000000003E
:2002C00000000000000000000000000000000000000000000000000000000000000000001E
:2002E0000000000000000000000000000000000000000000000000000000000000000000FE
:200300000000000000000000000000000000000000000000000000000000000000000000DD
:200320000000000000000000000000000000000000000000000000000000000000000000BD
:2003400000000000000000000000000000000000000000000000000000000000000000009D
:2003600000000000000000000000000000000000000000000000000000000000000000007D
:2003800000000000000000000000000000000000000000000000000000000000000000005D
:2003A00000000000000000000000000000000000000000000000000000000000000000003D
:2003C00000000000000000000000000000000000000000000000000000000000000000001D
:2003E0000000000000000000000000000000000000000000000000000000000000000000FD
:2004000010B5054C237833B9044B13B10448AFF300800123237010BD0C000020000000000E
:200420003485000808B5034B1BB103490348AFF3008008BD000000001000002034850008B5
:2004400053B94AB9002908BF00281CBF4FF0FF314FF0FF3000F072B9ADF1080C6DE904CEC8
:2004600000F006F8DDF804E0DDE9022304B070472DE9F047089E04468846002B4BD18A4261
:20048000154667D9B2FA82F24AB1C2F1200701FA02F320FA07F7954047EA030894404FEAA6
:2004A000154E230CB8FBFEF71FFA85FC0EFB178843EA084307FB0CF1994209D9EB1807F191
:2004C000FF3080F01B81994240F21881023F2B445B1AA4B2B3FBFEF00EFB103344EA034463
:2004E00000FB0CFCA44509D92C1900F1FF3380F00781A44540F2048102382C4440EA074013
:20050000A4EB0C0400271EB1D4400023C6E900433946BDE8F0878B4209D9002E00F0EB804A
:200520000027C6E9000138463946BDE8F087B3FA83F7002F47D18B4202D3824200F2FA808B
:20054000841A61EB030301209846002EE0D0C6E90048DDE702B9FFDEB2FA82F2002A40F001
:200560008F80491B4FEA154E1FFA85F80127B1FBFEFC230C0EFB1C1143EA014308FB0CF132
:20058000994207D9EB180CF1FF3002D2994200F2CD808446591AA3B2B1FBFEF00EFB10142A
:2005A00043EA044408FB00F8A04507D92C1900F1FF3302D2A04500F2B6801846A4EB0804C4
:2005C00040EA0C409FE7C7F1200CBB4022FA0CFE4EEA030E01FA07F420FA0CF521FA0CF3A6
:2005E0004FEA1E482543B3FBF8F92C0C08FB19331FFA8EFA44EA034309FB0AF49C4202FADD
:2006000007F200FA07F10BD91EEB030309F1FF3080F087809C4240F28480A9F102097344EC
:200620001B1BADB2B3FBF8F008FB103345EA034400FB0AFAA24508D91EEB040400F1FF33D8
:200640006BD2A24569D90238744440EA0940A0FB0289A4EB0A044C45C2464B4654D351D09A
:20066000002E69D0B1EB0A0564EB030404FA0CFCFD40FC404CEA0505C6E90054002747E7FB
:20068000C2F1200320FA03F7954001FA02F021FA03F34FEA154E3843010CB3FBFEF71FFABD
:2006A00085F80EFB173341EA034107FB08F38B4204FA02F407D9691807F1FF3C2FD28B42DB
:2006C0002DD9023F2944CB1A81B2B3FBFEF00EFB103341EA034100FB08F38B4207D96918D3
:2006E00000F1FF3C17D28B4215D902382944C91A40EA07473BE73746304609E70746E7E609
:200700001846FBE64145ABD2B8EB020A69EB0E0201381346A4E76046E9E7184695E767466A
:20072000D1E781467CE702382C4447E7ACF1020C2B442FE7384608E73746E9E6704700BFA0
:2007400080B485B000AF78600023FB810023BB81134BBB600023BB8117E07B689AB2BB688A
:200760001A800023FB8109E07B689AB2BB681A80BB680233BB60FB890133FB81FB89B3F598
:20078000487FF1D3BB890133BB81BB89B3F5F07FE3D300BF1437BD465DF8047B704700BFB2
:2007A000000060D080B582B000AF124B5B6F114A43F08073536700F03FF80F4B00221A6074
:2007C0000E4B7B607B6804331B680D4A13600C4B1B681A460B4B1A607B681B683B603B68D0
:2007E00083F30888074B1B68984700BF0837BD4680BD00BF0038024010E000E000000208EE
:20080000D00000205C03002080B500AF00224FF40071084803F0F0FE642001F0B5FE012233
:200820004FF40071034803F0E7FE192001F0ACFE00BF80BD0014024080B500AF05F002FBE5
:2008400001F04EFE114804F0A3F9114803F078F9104804F023F8104801F0B3FF0F4806F006
:20086000E2F90F4806F0DFF90E4805F007FD0E4805F014FC0D4B00221A600C4B00225A60A7
:200880000A4B00229A6000BF80BD00BFD40000201C0200207C000020B0010020600300200A
:2008A000080400205C0200207C01002010E000E080B500AF01F0F2FD00F02CF800F012FC4B
:2008C00000F090FB00F0B0F800F06EF900F0B2FB00F09CF900F0DAF900F062FA00F0EAFAA9
:2008E00000F04EFB00F04CF900F096FA00F016FB01F0B8FC0020FFF723FFFFF785FF01228F
:200900004FF40041024803F077FEFFF74BFFFEE70004024080B5A0B000AF07F15003302265
:200920000021184607F0FEFD07F13C0300221A605A609A60DA601A6107F10C033022002190
:20094000184607F0EFFD0023BB60354B1B6C344A43F080531364324B1B6C03F08053BB6031
:20096000BB6800237B602F4B1B682E4A43F4404313602C4B1B6803F440437B607B6801235E
:200980003B654FF480337B650223BB664FF48003FB6604233B67B4237B670223BB67042384
:2009A000FB6707F15003184604F0F2FB0346002B01D000F007FD04F09BFB0346002B01D043
:2009C00000F000FD0F23FB6302233B6400237B644FF4A053BB644FF48053FB6407F13C03D3
:2009E0000521184604F04CFE0346002B01D000F0E9FC0823FB604523FB6103237B620023AB
:200A00003B6307F10C03184605F05EF80346002B01D000F0D7FC00BF8037BD4680BD00BF0B
:200A2000003802400070004080B58AB000AF504802F00EF84E4B4F4A1A604D4B0C225A60B2
:200A40004B4B00229A604A4B0022DA60484B4FF430221A61464B4FF480125A61444B00227E
:200A60001A76434B01225A76414B00229A76404B0122DA763E4B00221A773D4B00225A77F2
:200A80003B4801F0A3FD0346002B63D10E237B620E237B610023BB610023FB614FF48053AB
:200AA0003B60354BBB604FF481537B60334BFB6000233B6101233B623B4619462C4801F070
:200AC000A3FE0346002B47D10F237B614FF476633B604FF47E63BB6000237B604FF47E63C3
:200AE000FB6001233B6101233B623B461946204801F08AFE0346002B30D110237B614BF298
:200B000020033B604BF6E073BB6000237B604FF47E63FB6001233B6101233B623B4619468A
:200B2000134801F071FE0346002B19D1104801F04BFF0346002B15D102210D4801F0D1FF76
:200B40000346002B10D11021094801F0CAFF0346002B0AE000BF08E000BF06E000BF04E0B7
:200B600000BF02E000BF00E000BF2837BD4680BDB001002000680040E0FF1F0000F01F0051
:200B800080B500AF064B074A1A60054802F014FB0346002B01D000F015FC00BF80BD00BF06
:200BA000740000200030024080B500AF154B164A1A60144B00225A60124B02229A60114BFF
:200BC0000022DA600F4B00229A620E4B0222DA620C4B00221A630B4B00225A63094802F01A
:200BE00065FF0346002B01D000F0ECFB0121054803F0BCF90346002B01D000F0E3FB00BF8C
:200C000080BD00BF1C02002000B0024080B500AF1B4B1C4A1A601A4B1B4A5A60184B002275
:200C20009A60174B0022DA60154B4FF480421A61134B00225A61124B00229A61104B0022EA
:200C4000DA610F4B00221A620D4803F0EFFC0346002B01D000F0B6FB0021094803F04DFE98
:200C60000346002B01D000F0ADFB0021044803F080FE0346002B01D000F0A4FB00BF80BDE9
:200C80007C00002000580040A086010080B58EB000AF404B404A1A603E4803F079FF3B1DFF
:200CA00034220021184607F03DFC3A4B3A4A1A60384B00225A60374B00229A60354B00220D
:200CC000DA60344B00221A61324B07225A61314B07229A612F4B3722DA612E4B13221A6285
:200CE0002C4B40F257325A622A4B40F2F3129A62284B40F28732DA62264B40F2FF121A6393
:200D0000244B002283F83420224B002283F83520204B002283F836201E4803F069FE0346AD
:200D2000002B01D000F04EFB00237B604FF44873BB600023FB604FF4F0733B6102237B61A6
:200D4000FF23BB610023FB614FF480633B6205237B62124BBB624FF44873FB624FF4F07393
:200D60003B63002387F83430002387F83530002387F836303B1D00221946064803F0E2FFC5
:200D80000346002B01D000F01DFB00BF3837BD4680BD00BFD400002000680140000060D00C
:200DA00080B500AF1A4B1B4A1A60194805F066FA174B184A1A60164B4FF482725A60144B66
:200DC00000229A60124B0022DA60114B00221A610F4B00225A610E4B4FF400729A610C4BAE
:200DE0000822DA610A4B00221A62094B00225A62074B00229A62064B0A22DA62044805F0FF
:200E0000B4F90346002B01D000F0DCFA00BF80BD5C0200200030014080B586B000AF07F11D
:200E2000080300221A605A609A60DA603B4600221A605A601E4B4FF080421A601C4B40F2C9
:200E4000C1125A601A4B00229A60194B40F2E732DA60174B00221A61154B00229A611448C3
:200E600005F092FE0346002B01D000F0ABFA4FF48053BB6007F1080319460D4806F0A0F89D
:200E80000346002B01D000F09DFA00233B6000237B603B461946064806F0B0FA0346002B88
:200EA00001D000F08FFA00BF1837BD4680BD00BFB402002080B582B000AF3B4600221A60D2
:200EC0005A60144B144A1A60124B00225A60114B00229A600F4B0022DA600E4B00229A6144
:200EE0000C4805F051FE0346002B01D000F06AFA00233B6000237B603B461946054806F0E2
:200F00007DFA0346002B01D000F05CFA00BF0837BD4680BD600300200014004080B500AFD6
:200F2000154B164A1A60144B4FF4E1325A60124B00229A60104B0022DA600F4B00221A61E1
:200F40000D4B0C225A610C4B00229A610A4B0022DA61094806F0E2FA0346002B01D000F0D2
:200F600031FA054B1B685A69034B1B6842F001025A6100BF80BD00BFD801002000100140EA
:200F800080B500AF154B164A1A60144B4FF4E1325A60124B00229A60104B0022DA600F4B3A
:200FA00000221A610D4B0C225A610C4B00229A610A4B0022DA61094806F0B0FA0346002BC8
:200FC00001D000F0FFF9054B1B685A69034B1B6842F001025A6100BF80BD00BF30000020F6
:200FE0000048004080B582B000AF00237B60104B1B6B0F4A43F4800313630D4B1B6B03F416
:2010000080037B607B6800220021382002F09CF8382002F0B5F8002200213B2002F094F85B
:201020003B2002F0ADF800BF0837BD4680BD00BF0038024080B588B000AF284B284A1A60CC
:20104000264805F02BF83B1D00221A605A609A60DA601A615A619A61204B214A1A601F4B3D
:2010600001225A601D4B00229A601C4B0422DA601A4B10221A61194B40225A61174B4FF410
:20108000C0729A61154B0022DA61144B4FF400621A62124B4FF480525A62104B00229A623F
:2010A00002237B600723BB600423FB6007233B6103237B610223BB610223FB613B1D194628
:2010C000064804F0B7FF0346002B01D000F07AF900F014F900BF2037BD4680BD7C01002080
:2010E000400100A080B58EB000AF07F1240300221A605A609A60DA601A6100233B62794B45
:201100001B6B784A43F010031363764B1B6B03F010033B623B6A0023FB61724B1B6B714ABF
:2011200043F0040313636F4B1B6B03F00403FB61FB690023BB616B4B1B6B6A4A43F0200380
:201140001363684B1B6B03F02003BB61BB6900237B61644B1B6B634A43F080031363614BD1
:201160001B6B03F080037B617B6900233B615D4B1B6B5C4A43F0010313635A4B1B6B03F055
:2011800001033B613B690023FB60564B1B6B554A43F002031363534B1B6B03F00203FB60A2
:2011A000FB680023BB604F4B1B6B4E4A43F0400313634C4B1B6B03F04003BB60BB68002336
:2011C0007B60484B1B6B474A43F008031363454B1B6B03F008037B607B6800233B60414BBA
:2011E0001B6B404A43F4807313633E4B1B6B03F480733B603B6800224FF400713A4803F0BD
:20120000FBF900220821394803F0F6F900221021374803F0F1F900224FF44041354803F027
:20122000EBF900224FF48051334803F0E5F94FF400737B620123BB620023FB6200233B6333
:2012400007F124031946284802F022FF08237B620123BB620023FB6200233B6307F12403E4
:201260001946224802F014FF10237B620123BB620023FB6200233B6307F1240319461C482C
:2012800002F006FF20237B624FF48813BB620023FB6207F124031946154802F0F9FE4FF4B5
:2012A00040437B620123BB620023FB6200233B6307F1240319460F4802F0EAFE4FF4805387
:2012C0007B620123BB620023FB6200233B6307F124031946084802F0DBFE00BF3837BD46E5
:2012E00080BD00BF0038024000140240000002400008024000040240000C024080B586B097
:2013000000AF00237B6101237B600823BB600123FB6000233B613B1D4FF6FF7219461F48C8
:2013200004F0D8FE012001F02FF902237B600823BB600123FB6000233B613B1D4FF6FF7217
:201340001946164804F0C6FE03237B600823BB600423FB6000233B613B1D4FF6FF72194623
:201360000E4804F0B7FE4FF40C737B6104237B600823BB600123FB607B693B613B1D4FF6EC
:20138000FF721946054804F0A5FE40F26A51034804F0CBFE00BF1837BD4680BD7C010020B9
:2013A00080B582B000AF78607B681B68044A934201D101F0C9F800BF0837BD4680BD00BF35
:2013C000000C004080B400AF72B6FEE780B483B000AF00237B60104B5B6C0F4A43F4804348
:2013E00053640D4B5B6C03F480437B607B6800233B60094B1B6C084A43F080531364064BE6
:201400001B6C03F080533B603B6800BF0C37BD465DF8047B704700BF0038024080B58AB009
:2014200000AF786007F1140300221A605A609A60DA601A617B681B68284A93424AD1002326
:201440003B61274B1B6C264A43F080631364244B1B6C03F080633B613B690023FB60204B05
:201460001B6C1F4A43F0007313641D4B1B6C03F00073FB60FB680023BB60194B1B6B184AC2
:2014800043F002031363164B1B6B03F00203BB60BB684FF440537B610223BB610023FB610F
:2014A00003233B6209237B6207F1140319460D4802F0EEFD00220021402001F045FE402089
:2014C00001F05EFE00220021412001F03DFE412001F056FE00BF2837BD4680BD0068004043
:2014E000003802400004024080B582B000AF78607B681B680E4A934216D10E4B1B6C0D4A8D
:2015000023F0806313640B4B1B6C0A4A23F0007313644FF44051084802F064FF402001F066
:201520003DFE412001F03AFE00BF0837BD4680BD00680040003802400004024080B485B0D7
:2015400000AF78607B681B680B4A93420DD10023FB600A4B1B6B094A43F480531363074B18
:201560001B6B03F48053FB60FB6800BF1437BD465DF8047B704700BF00300240003802401A
:2015800080B584B000AF78607B681B680E4A934215D10023FB600D4B1B6B0C4A43F40003F6
:2015A00013630A4B1B6B03F40003FB60FB68002200215A2001F0C8FD5A2001F0E1FD00BFA7
:2015C0001037BD4680BD00BF00B002400038024080B582B000AF78607B681B68074A9342DF
:2015E00008D1074B1B6B064A23F4000313635A2001F0D4FD00BF0837BD4680BD00B00240EE
:201600000038024080B58AB000AF786007F1140300221A605A609A60DA601A617B681B68E0
:20162000194A93422BD100233B61184B1B6B174A43F080031363154B1B6B03F080033B6149
:201640003B6930237B611223BB610123FB6103233B6204237B6207F1140319460C4802F06B
:2016600017FD0023FB60094B1B6C084A43F480031364064B1B6C03F48003FB60FB6800BFAB
:201680002837BD4680BD00BF0058004000380240001C024080B582B000AF78607B681B6828
:2016A0000A4A93420DD10A4B1B6C094A23F4800313641021074802F095FE2021054802F05E
:2016C00091FE00BF0837BD4680BD00BF0058004000380240001C024080B590B000AF786012
:2016E00007F12C0300221A605A609A60DA601A617B681B688C4A934240F011810023BB62AB
:201700008A4B5B6C894A43F080635364874B5B6C03F08063BB62BB6A00237B62834B1B6B88
:20172000824A43F010031363804B1B6B03F010037B627B6A00233B627C4B1B6B7B4A43F003
:2017400020031363794B1B6B03F020033B623B6A0023FB61754B1B6B744A43F0800313639F
:20176000724B1B6B03F08003FB61FB690023BB616E4B1B6B6D4A43F0010313636B4B1B6BD2
:2017800003F00103BB61BB6900237B61674B1B6B664A43F002031363644B1B6B03F0020350
:2017A0007B617B6900233B61604B1B6B5F4A43F0400313635D4B1B6B03F040033B613B6940
:2017C0000023FB60594B1B6B584A43F004031363564B1B6B03F00403FB60FB680023BB60F2
:2017E000524B1B6B514A43F4807313634F4B1B6B03F48073BB60BB687023FB6202233B6390
:2018000000237B630023BB630E23FB6307F12C031946474802F03CFC4FF48063FB62022310
:201820003B6300237B630023BB630E23FB6307F12C0319463F4802F02BFC4DF60C53FB6214
:2018400002233B6300237B630023BB630E23FB6307F12C031946384802F01AFC5023FB6216
:2018600002233B6300237B630023BB630E23FB6307F12C031946314802F00AFC0123FB625C
:2018800002233B6300237B630023BB630923FB6307F12C0319462A4802F0FAFB4FF4E6535E
:2018A000FB6202233B6300237B630023BB630E23FB6307F12C031946224802F0E9FB40230E
:2018C000FB6202233B6300237B630023BB630E23FB6307F12C0319461B4802F0D9FBF7234E
:2018E000FB6202233B6300237B630023BB630E23FB6307F12C031946144802F0C9FB00223D
:201900000021582001F020FC582001F039FC00220021592001F018FC592001F031FC00BF6C
:201920004037BD4680BD00BF00680140003802400010024000140240001C024000000240C6
:201940000004024000180240000802400020024080B582B000AF78607B681B681A4A9342AE
:201960002ED11A4B5B6C194A23F0806353647021174802F037FD4FF48061164802F032FD73
:201980004DF60C51144802F02DFD5021134802F029FD0121124802F025FD4FF4E6511148E8
:2019A00002F020FD4021104802F01CFDF7210F4802F018FD582001F0F1FB592001F0EEFB36
:2019C00000BF0837BD4680BD00680140003802400010024000140240001C0240000002405E
:2019E0000004024000180240000802400020024080B58AB000AF786007F1140300221A60FA
:201A00005A609A60DA601A617B681B685B4A934240F0AF8000233B61594B5B6C584A43F41B
:201A200080535364564B5B6C03F480533B613B690023FB60524B1B6B514A43F001031363C1
:201A40004F4B1B6B03F00103FB60FB680023BB604B4B1B6B4A4A43F002031363484B1B6BFC
:201A600003F00203BB60BB6848F2A0037B610223BB610023FB6103233B6205237B6207F1F7
:201A8000140319463F4802F003FB10237B610223BB610023FB6103233B6205237B6207F1CA
:201AA00014031946384802F0F3FA384B384A1A60364B4FF0C0625A60344B00229A60334B1D
:201AC0000022DA60314B4FF480621A612F4B00225A612E4B00229A612C4B0022DA612B4B57
:201AE00000221A62294B00225A62284801F080FB0346002B01D0FFF765FC7B68234ADA64F0
:201B0000224A7B689363234B234A1A60214B4FF0C0625A601F4B40229A601E4B0022DA6019
:201B20001C4B4FF480621A611A4B00225A61194B00229A61174B0022DA61164B00221A621D
:201B4000144B00225A62134801F052FB0346002B01D0FFF737FC7B680E4A9A640D4A7B68CE
:201B6000936300220121232001F0EEFA232001F007FB00BF2837BD4680BD00BF003001404B
:201B8000003802400000024000040240FC02002010640240A80300205864024080B582B03F
:201BA00000AF78607B681B68114A93421BD1114B5B6C104A23F48053536448F2A0010E48CD
:201BC00002F010FC10210D4802F00CFC7B68DB6C184601F0BBFB7B689B6C184601F0B6FB6E
:201BE000232001F0DBFA00BF0837BD4680BD00BF003001400038024000000240000402406C
:201C000080B584B000AF78607B681B68B3F1804F16D10023FB601A4B1B6C194A43F0010310
:201C20001364174B1B6C03F00103FB60FB68002200211C2001F088FA1C2001F0A1FA1AE0DB
:201C40007B681B680F4A934215D10023BB600C4B1B6C0B4A43F020031364094B1B6C03F0FE
:201C60002003BB60BB6800220021372001F06CFA372001F085FA00BF1037BD4680BD00BF46
:201C8000003802400014004080B582B000AF78607B681B68B3F1804F09D10E4B1B6C0D4A9E
:201CA00023F0010313641C2001F078FA0DE07B681B68094A934208D1064B1B6C054A23F069
:201CC00020031364372001F069FA00BF0837BD4680BD00BF003802400014004080B58CB083
:201CE00000AF786007F11C0300221A605A609A60DA601A617B681B683B4A934235D1002358
:201D0000BB613A4B5B6C394A43F010035364374B5B6C03F01003BB61BB6900237B61334BCF
:201D20001B6B324A43F001031363304B1B6B03F001037B617B694FF4C063FB6102233B62B8
:201D400000237B620323BB620723FB6207F11C031946274802F09CF900220021252001F0D4
:201D6000F3F9252001F00CFA39E07B681B68214A934234D100233B611C4B1B6C1B4A43F42E
:201D800080231364194B1B6C03F480233B613B690023FB60154B1B6B144A43F002031363F4
:201DA000124B1B6B03F00203FB60FB684FF44063FB6102233B6200237B620323BB62072319
:201DC000FB6207F11C0319460B4802F061F900220021272001F0B8F9272001F0D1F900BFA4
:201DE0003037BD4680BD00BF001001400038024000000240004800400004024080B586B037
:201E000000AF3B1D00221A605A609A60DA601A61434B1B68002B7ED1414B01221A600023DF
:201E20003B60404B9B6B3F4A43F0010393633D4B9B6B03F001033B603B684FF63F037B609B
:201E40000223BB600023FB6003233B610C237B613B1D1946344802F01BF901237B6002239A
:201E6000BB600023FB6003233B610C237B613B1D19462E4802F00CF948F233137B60022358
:201E8000BB600023FB6003233B610C237B613B1D1946274802F0FCF84FF683737B60022395
:201EA000BB600023FB6003233B610C237B613B1D1946204802F0ECF840237B600223BB6049
:201EC0000023FB6003233B610C237B613B1D1946194802F0DDF84CF203737B600223BB6009
:201EE0000023FB6003233B610C237B613B1D1946124802F0CDF820237B600223BB6000234E
:201F0000FB6003233B610C237B613B1D19460C4802F0BEF800E000BF1837BD4680BD00BFF9
:201F2000280000200038024000140240000802400018024000100240001C0240000C0240E7
:201F40000004024080B582B000AF7860FFF756FF00BF0837BD4680BD80B500AF174B1B68FB
:201F6000002B29D1154B01221A60154B9B6B144A23F0010393634FF63F01124802F032FA71
:201F80000121114802F02EFA48F233110F4802F029FA4FF683710E4802F024FA40210D486D
:201FA00002F020FA4CF203710B4802F01BFA20210A4802F017FA00E000BF80BD2C0000204B
:201FC0000038024000140240000802400018024000100240001C0240000C02400004024049
:201FE00080B582B000AF7860FFF7B6FF00BF0837BD4680BD80B58CB000AF78600023FB6292
:202000000023BB6200227968322001F09DF8322001F0B6F80023FB601F4B1B6C1E4A43F0AA
:20202000080313641C4B1B6C03F00803FB60FB6807F1100207F114031146184603F012FDA4
:2020400003F0E8FC03465B00FB62FB6A134AA2FB03239B0C013BBB62114B124A1A60104B96
:2020600040F2E732DA600E4ABB6A53600C4B00221A610B4B00229A60094804F085FD034635
:20208000002B04D1064804F023FE034600E0012318463037BD4680BD0038024083DE1B4352
:2020A00008040020000C004080B400AFFEE780B400AFFEE780B400AFFEE780B400AFFEE788
:2020C00080B400AFFEE780B400AF00BFBD465DF8047B704780B400AF00BFBD465DF8047B8F
:2020E000704780B400AF00BFBD465DF8047B704780B400AF00BFBD465DF8047B70470000C9
:2021000080B500AF024804F053FE00BF80BD00BFB402002080B500AF024804F0D9F900BF08
:2021200080BD00BF5C02002080B500AF024805F043FA00BF80BD00BFD801002080B500AF2D
:20214000024805F039FA00BF80BD00BF3000002080B500AF024804F02BFE00BF80BD00BFFC
:202160000804002080B500AF024804F021FE00BF80BD00BF6003002080B500AF024801F095
:202180002DFA00BF80BD00BFFC02002080B500AF024801F023FA00BF80BD00BFA80300207D
:2021A00080B500AF024800F0C2FC00BF80BD00BFB001002080B500AF024800F0B8FC00BF26
:2021C00080BD00BFB001002080B500AF024802F0F7FC00BF80BD00BFD400002080B500AF8C
:2021E000024802F0EDFC00BF80BD00BFD400002080B500AF024801F0A8FD00BF80BD00BF8C
:202200001C02002080B400AF064BD3F88830054A43F47003C2F8883000BFBD465DF8047BC8
:20222000704700BF00ED00E080B500AF00224FF400410B4802F0E0F9662000F0EDF8052033
:2022400000F0A2F9992000F0E7F8052000F09CF901224FF40041024802F0CEF900BF80BD1B
:202260000000024080B586B000AF4FF400433B6001237B600123BB600223FB603B46194643
:202280001B4801F005FFFFF7CFFF0A2000F07CF99F2000F049F80346EF2B00D0F5E700BFD5
:2022A0009F2000F041F80346EF2B01D001231AE0FF23FB75FF23BB75052000F035F8034675
:2022C000FB75352000F030F80346BB75FB7D63F07F03DAB2BB7D23F00103DBB2194610463E
:2022E00000F04EF8002318461837BD4680BD00BF0000024080B584B000AFF860B9607A6034
:202300007B689BB2BA68F968064803F0DFFF00BF044804F00FFA0346012BF9D100BF10379E
:20232000BD4680BD5C02002080B584B000AF0346FB71A523FB73FB7B3B73FB7B7B73FB79E0
:202340003B72FB7B7B7200224FF400410B4802F053F907F10C0107F1080302221846FFF7B6
:20236000C9FF01224FF40041044802F045F97B7BBB73BB7B18461037BD4680BD00000240F1
:2023800080B584B000AF03460A46FB711346BB7107F10C0300210A461A800A469A7007F137
:2023A000080300210A461A800A469A7050233B7200224FF40041174802F01EF907F10C017A
:2023C00007F1080301221846FFF794FF01224FF40041104802F010F901233B72FB797B72C4
:2023E000BB79BB7200224FF400410A4802F004F907F10C0107F1080303221846FFF77AFF9B
:2024000001224FF40041034802F0F6F800BF1037BD4680BD0000024080B584B000AF034601
:20242000FB7100233B7300233B72FB793B7207F10C0107F1080301221846FFF75BFF3B7BDF
:2024400018461037BD4680BDDFF834D00D480E490E4A002302E0D458C4500433C4188C4292
:20246000F9D30B4A0B4C002301E013600432A242FBD3FFF7C7FE06F031F8FEF719FA7047EC
:20248000FCFF0220000000200C0000207C8500080C00002054040020FEE7000080B500AF5D
:2024A0000E4B1B680D4A43F4007313600B4B1B680A4A43F480631360084B1B68074A43F4B4
:2024C00080731360032000F034FE0020FFF792FDFEF77CFF0023184680BD00BF003C024041
:2024E00080B500AF134B4FF0FF321A62114B00221A62104B4FF0FF325A620E4B00225A62F6
:202500000C4B4FF0FF321A610A4B00221A61094B4FF0FF325A61074B00225A61054B4FF04A
:20252000FF329A61034B00229A6100F005F80023184680BD0038024080B400AF00BFBD463A
:202540005DF8047B7047000080B400AF064B1B781A46064B1B681344044A136000BFBD461B
:202560005DF8047B704700BF080000205004002080B400AF034B1B681846BD465DF8047B8C
:20258000704700BF5004002080B584B000AF7860FFF7EEFFB8607B68FB60FB68B3F1FF3FE3
:2025A00005D0094B1B781A46FB681344FB6000BFFFF7DEFF0246BB68D31AFA689A42F7D8F3
:2025C00000BF1037BD4680BD0800002080B584B000AF78607B68002B01D10123EDE07B68E9
:2025E00093F82030DBB2002B02D17868FEF716FF7B681B681A687B681B6842F001021A608E
:20260000FFF7B6FFF86012E0FFF7B2FF0246FB68D31A0A2B0BD97B685B6A43F400327B6879
:202620005A627B68052283F820200123C5E07B681B685B6803F00103002BE5D07B681B68EA
:202640001A687B681B6822F002021A60FFF790FFF86012E0FFF78CFF0246FB68D31A0A2BE5
:202660000BD97B685B6A43F400327B685A627B68052283F8202001239FE07B681B685B6835
:2026800003F00203002BE5D17B681B7E012B08D17B681B681A687B681B6842F080021A6064
:2026A00007E07B681B681A687B681B6822F080021A607B685B7E012B08D17B681B681A682E
:2026C0007B681B6842F040021A6007E07B681B681A687B681B6822F040021A607B689B7EA7
:2026E000012B08D17B681B681A687B681B6842F020021A6007E07B681B681A687B681B6884
:2027000022F020021A607B68DB7E012B08D17B681B681A687B681B6822F010021A6007E0F7
:202720007B681B681A687B681B6842F010021A607B681B7F012B08D17B681B681A687B6840
:202740001B6842F008021A6007E07B681B681A687B681B6822F008021A607B685B7F012B8C
:2027600008D17B681B681A687B681B6842F004021A6007E07B681B681A687B681B6822F039
:2027800004021A607B689A687B68DB681A437B681B691A437B685B6942EA03017B685B6810
:2027A0005A1E7B681B680A43DA617B6800225A627B68012283F82020002318461037BD4666
:2027C00080BD80B582B000AF78607B68002B01D1012315E0786800F03BF97868FEF784FE7A
:2027E0007B681B681A687B681B6842F400421A607B6800225A627B68002283F820200023F5
:2028000018460837BD4680BD80B487B000AF786039607B681B687B617B6893F82030FB74E1
:20282000FB7C012B03D0FB7C022B40F0BE80654B7B617B69D3F8003243F001027B69C3F8CE
:2028400000227B69D3F8003223F47C527B69C3F800227B69D3F800223B685B6A1B021A431C
:202860007B69C3F800223B685B6903F01F03012202FA03F3FB607B69D3F81C22FB68DB433D
:202880001A407B69C3F81C223B68DB69002B23D17B69D3F80C22FB68DB431A407B69C3F8A4
:2028A0000C223B68DB6819043B685B689BB23A68526919437B69483243F832103B689B68FA
:2028C00019043B681B689AB23B685B690A4379694833DB000B445A603B68DB69012B22D16E
:2028E0007B69D3F80C22FB681A437B69C3F80C223B681B6819043B685B689BB23A6852691B
:2029000019437B69483243F832103B689B6819043B68DB689AB23B685B690A43796948337A
:20292000DB000B445A603B689B69002B09D17B69D3F80422FB68DB431A407B69C3F8042292
:2029400007E07B69D3F80422FB681A437B69C3F804223B681B69002B09D17B69D3F8142225
:20296000FB68DB431A407B69C3F8142207E07B69D3F81422FB681A437B69C3F814223B68A3
:202980001B6A012B07D17B69D3F81C22FB681A437B69C3F81C227B69D3F8003223F001022D
:2029A0007B69C3F80022002306E07B685B6A43F480227B685A62012318461C37BD465DF800
:2029C000047B70470064004080B584B000AF78607B6893F82030DBB2012B2ED17B680222B0
:2029E00083F820207B681B681A687B681B6822F001021A60FFF7BCFDF86012E0FFF7B8FD9B
:202A00000246FB68D31A0A2B0BD97B685B6A43F400327B685A627B68052283F8202001236C
:202A200012E07B681B685B6803F00103002BE5D17B6800225A62002306E07B685B6A43F4FA
:202A400000227B685A62012318461037BD4680BD80B584B000AF78607B6893F82030DBB271
:202A6000022B33D17B681B681A687B681B6842F001021A60FFF77CFDF86012E0FFF778FD04
:202A80000246FB68D31A0A2B0BD97B685B6A43F400327B685A627B68052283F820200123EC
:202AA0001BE07B681B685B6803F00103002BE5D07B681B681A687B681B6822F002021A603D
:202AC0007B68012283F82020002306E07B685B6A43F480127B685A62012318461037BD4650
:202AE00080BD80B485B000AF786039607B6893F82030FB73FB7B012B02D0FB7B022B09D1F3
:202B00007B681B6859697B681B683A680A435A61002306E07B685B6A43F480227B685A6254
:202B2000012318461437BD465DF8047B704780B58AB000AF786000237B627B681B685B691A
:202B40003B627B681B685B68FB617B681B689B68BB617B681B68DB687B617B681B681B695F
:202B60003B617B681B689B69FB603B6A03F00103002B7CD0BB6903F00103002B23D07B68C5
:202B80001B6801229A60BB6903F00203002B03D0786800F07DF916E0BB6903F00403002BF6
:202BA00004D07B6A43F400637B620CE0BB6903F00803002B04D07B6A43F480537B6202E02A
:202BC000786800F083F9BB6903F48073002B24D07B681B684FF480729A60BB6903F4007359
:202BE000002B03D0786800F05DF916E0BB6903F48063002B04D07B6A43F400537B620CE086
:202C0000BB6903F40063002B04D07B6A43F480437B6202E0786800F063F9BB6903F480339F
:202C2000002B24D07B681B684FF480329A60BB6903F40033002B03D0786800F03DF916E0D8
:202C4000BB6903F48023002B04D07B6A43F400437B620CE0BB6903F40023002B04D07B6A6D
:202C600043F480337B6202E0786800F043F93B6A03F00803002B0CD07B6903F01003002BE0
:202C800007D07B6A43F400737B627B681B681022DA603B6A03F00403002B0BD07B6903F0A3
:202CA0000803002B06D07B681B680822DA60786800F034F93B6A03F00203002B09D07B68BD
:202CC0001B68DB6803F00303002B02D0786800F01BF93B6A03F04003002B0CD03B6903F0DB
:202CE0001003002B07D07B6A43F480637B627B681B6810221A613B6A03F02003002B0BD00F
:202D00003B6903F00803002B06D07B681B6808221A61786800F016F93B6A03F01003002B50
:202D200009D07B681B681B6903F00303002B02D0786800F0FDF83B6A03F40033002B0BD040
:202D4000FB6903F01003002B06D07B681B6810225A60786800F000F93B6A03F48033002B73
:202D60000BD0FB6903F00803002B06D07B681B6808225A60786800F0F9F83B6A03F400432B
:202D8000002B75D0FB6903F00403002B6CD03B6A03F48073002B08D0FB6803F00103002BE7
:202DA00003D07B6A43F001037B623B6A03F40073002B08D0FB6803F00203002B03D07B6AF7
:202DC00043F002037B623B6A03F48063002B08D0FB6803F00403002B03D07B6A43F00403E2
:202DE0007B623B6A03F40063002B3DD0FB6803F07003002B38D0FB6803F07003302B17D0B8
:202E0000302B04D8102B09D0202B0CD024E0502B18D0602B1BD0402B0FD01DE07B6A43F004
:202E200008037B6218E07B6A43F010037B6213E07B6A43F020037B620EE07B6A43F0400356
:202E40007B6209E07B6A43F080037B6204E07B6A43F480737B6200BF7B681B689A697B6859
:202E60001B6822F070029A617B681B6804225A607B6A002B08D07B685A6A7B6A1A437B6856
:202E80005A62786800F07CF800BF2837BD4680BD80B483B000AF786000BF0C37BD465DF88C
:202EA000047B704780B483B000AF786000BF0C37BD465DF8047B704780B483B000AF786070
:202EC00000BF0C37BD465DF8047B704780B483B000AF786000BF0C37BD465DF8047B7047E4
:202EE00080B483B000AF786000BF0C37BD465DF8047B704780B483B000AF786000BF0C3764
:202F0000BD465DF8047B704780B483B000AF786000BF0C37BD465DF8047B704780B483B03E
:202F200000AF786000BF0C37BD465DF8047B704780B483B000AF786000BF0C37BD465DF832
:202F4000047B704780B483B000AF786000BF0C37BD465DF8047B704780B483B000AF7860CF
:202F600000BF0C37BD465DF8047B704780B483B000AF786000BF0C37BD465DF8047B704743
:202F800080B483B000AF786000BF0C37BD465DF8047B704780B485B000AF78607B6803F0ED
:202FA0000703FB600C4BDB68BB60BA684FF6FF031340BB60FB681A02BB68134343F0BF63D3
:202FC00043F40033BB60044ABB68D36000BF1437BD465DF8047B704700ED00E080B400AF80
:202FE000044BDB681B0A03F007031846BD465DF8047B704700ED00E080B483B000AF034605
:20300000FB7197F90730002B0BDBFB7903F01F02074997F907305B09012000FA02F241F821
:20302000232000BF0C37BD465DF8047B704700BF00E100E080B483B000AF0346FB7197F9E2
:203040000730002B10DBFB7903F01F02094997F907305B09012000FA02F2203341F8232040
:20306000BFF34F8FBFF36F8F00BF0C37BD465DF8047B704700E100E080B483B000AF034660
:203080003960FB7197F90730002B0ADB3B68DAB20C4997F907301201D2B20B4483F8002385
:2030A0000AE03B68DAB20849FB7903F00F03043B1201D2B20B441A7600BF0C37BD465DF81E
:2030C000047B704700E100E000ED00E080B489B000AFF860B9607A60FB6803F00703FB6109
:2030E000FB69C3F10703042B28BF0423BB61FB690433062B02D9FB69033B00E000237B612D
:203100004FF0FF32BB6902FA03F3DA43BB681A407B699A404FF0FF317B6901FA03F3D94371
:203120007B680B40134318462437BD465DF8047B704780B582B000AF78607868FFF72AFFD7
:2031400000BF0837BD4680BD80B586B000AF0346B9607A60FB7300237B61FFF73FFF786161
:203160007A68B9687869FFF7B1FF024697F90F3011461846FFF780FF00BF1837BD4680BD36
:2031800080B582B000AF0346FB7197F907301846FFF732FF00BF0837BD4680BD80B582B073
:2031A00000AF0346FB7197F907301846FFF742FF00BF0837BD4680BD80B582B000AF786023
:2031C0007B68002B01D101230EE07B685B79DBB2002B05D17B6800221A717868FEF7AEF9AC
:2031E0007B6801225A71002318460837BD4680BD80B586B000AF786000237B61FFF7B8F966
:2032000038617B68002B01D1012399E07B68022283F835207B68002283F834207B681B6887
:203220001A687B681B6822F001021A600FE0FFF79FF902463B69D31A052B08D97B6820228B
:203240005A657B68032283F83520032378E07B681B681B6803F00103002BE8D17B681B682F
:203260001B687B617A69384B13407B617B685A687B689B681A437B68DB681A437B681B6988
:203280001A437B685B691A437B689B691A437B68DB691A437B681B6A13437A6913437B6132
:2032A0007B685B6A042B07D17B68DA6A7B681B6B13437A6913437B617B681B687A691A60A1
:2032C0007B681B685B697B617B6923F007037B617B685B6A7A6913437B617B685B6A042B77
:2032E00017D17B689B6A7A6913437B617B68DB6A002B0ED0786800F05FFB0346002B08D042
:203300007B6840225A657B68012283F83520012316E07B681B687A695A61786800F016FBD4
:203320000346FB607B68DB6D3F229A40FB689A607B6800225A657B68012283F83520002369
:2033400018461837BD4680BD3F8010F080B584B000AF78607B68002B01D1012350E07B68BA
:2033600093F83530DBB2022B01D1022348E07B681B681A687B681B6822F001021A607B68C4
:203380001B6800221A607B681B6800225A607B681B6800229A607B681B680022DA607B68A5
:2033A0001B6800221A617B681B6821225A61786800F0CCFA0346FB607B680022DA637B682A
:2033C00000221A647B6800225A647B6800229A647B680022DA647B6800221A657B68DB6D95
:2033E0003F229A40FB689A607B6800225A657B68002283F835207B68002283F834200023A5
:2034000018461037BD4680BD80B586B000AFF860B9607A603B600023FB75FB689B6D3B612D
:20342000FB6893F83430012B01D1022340E0FB68012283F83420FB6893F83530DBB2012B96
:203440002FD1FB68022283F83520FB6800225A653B687A68B968F86800F04AFAFB68DB6DEC
:203460003F229A403B699A60FB681B681A68FB681B6842F016021A60FB681B6C002B07D075
:20348000FB681B681A68FB681B6842F008021A60FB681B681A68FB681B6842F001021A602B
:2034A00005E0FB68002283F834200223FB75FB7D18461837BD4680BD80B584B000AF7860E9
:2034C0007B689B6DFB60FFF753F8B8607B6893F83530DBB2022B08D07B6880225A657B68C1
:2034E000002283F83420012352E07B681B681A687B681B6822F016021A607B681B685A696A
:203500007B681B6822F080025A617B681B6C002B03D17B689B6C002B07D07B681B681A68B9
:203520007B681B6822F008021A607B681B681A687B681B6822F001021A6013E0FFF718F8B9
:203540000246BB68D31A052B0CD97B6820225A657B68032283F835207B68002283F834206E
:20356000032315E07B681B681B6803F00103002BE4D17B68DB6D3F229A40FB689A607B68CA
:20358000012283F835207B68002283F83420002318461037BD4680BD80B483B000AF78606E
:2035A0007B6893F83530DBB2022B04D07B6880225A6501230CE07B68052283F835207B6899
:2035C0001B681A687B681B6822F001021A60002318460C37BD465DF8047B704780B586B034
:2035E00000AF78600023BB60924B1B68924AA2FB03239B0A7B617B689B6D3B613B691B68D8
:20360000FB607B68DB6D08229A40FB681340002B1AD07B681B681B6803F00403002B13D064
:203620007B681B681A687B681B6822F004021A607B68DB6D08229A403B699A607B685B6D32
:2036400043F001027B685A657B68DB6D01229A40FB681340002B12D07B681B685B6903F08A
:203660008003002B0BD07B68DB6D01229A403B699A607B685B6D43F002027B685A657B6894
:20368000DB6D04229A40FB681340002B12D07B681B681B6803F00203002B0BD07B68DB6D0D
:2036A00004229A403B699A607B685B6D43F004027B685A657B68DB6D10229A40FB681340F9
:2036C000002B43D07B681B681B6803F00803002B3CD07B68DB6D10229A403B699A607B68D6
:2036E0001B681B6803F48023002B18D07B681B681B6803F40023002B08D17B681B6C002B7B
:2037000024D07B681B6C786898471FE07B689B6C002B1BD07B689B6C7868984716E07B680B
:203720001B681B6803F48073002B07D17B681B681A687B681B6822F008021A607B681B6C48
:20374000002B03D07B681B6C786898477B68DB6D20229A40FB681340002B00F08E807B6839
:203760001B681B6803F01003002B00F086807B68DB6D20229A403B699A607B6893F8353064
:20378000DBB2052B36D17B681B681A687B681B6822F016021A607B681B685A697B681B68E4
:2037A00022F080025A617B681B6C002B03D17B689B6C002B07D07B681B681A687B681B6817
:2037C00022F008021A607B68DB6D3F229A403B699A607B68012283F835207B68002283F8F9
:2037E00034207B681B6D002B7DD07B681B6D7868984778E07B681B681B6803F48023002B62
:203800001CD07B681B681B6803F40023002B08D17B685B6C002B30D07B685B6C7868984777
:203820002BE07B68DB6B002B27D07B68DB6B7868984722E000000020B5814E1B7B681B6823
:203840001B6803F48073002B0FD17B681B681A687B681B6822F010021A607B68012283F883
:2038600035207B68002283F834207B68DB6B002B03D07B68DB6B786898477B685B6D002B3A
:2038800032D07B685B6D03F00103002B22D07B68052283F835207B681B681A687B681B683F
:2038A00022F001021A60BB680133BB607A699A4207D37B681B681B6803F00103002BF2D1A0
:2038C00000E000BF7B68012283F835207B68002283F834207B68DB6C002B05D07B68DB6C4B
:2038E0007868984700E000BF1837BD4680BD00BF80B485B000AFF860B9607A603B60FB68BB
:203900001B681A68FB681B6822F480221A60FB681B683A685A60FB689B68402B08D1FB683B
:203920001B687A689A60FB681B68BA68DA6007E0FB681B68BA689A60FB681B687A68DA60FB
:2039400000BF1437BD465DF8047B704780B485B000AF78607B681B68DBB2103B144AA2FBA6
:2039600003231B09FB60134AFB6813441B781A467B68DA65FB68032B09D97B681B6823F486
:203980007F7323F003031A1D7B689A6507E07B681B6823F47F7323F003037A6893657B68D7
:2039A0009B6D18461437BD465DF8047B704700BFABAAAAAA6485000880B485B000AF78607F
:2039C0000023FB737B689B6ABB607B689B69002B1FD1BB68032B55D801A252F823F000BF14
:2039E000F1390008033A0008F1390008853A00087B68DB6A03F08073002B45D00123FB7377
:203A000042E07B68DB6AB3F1C07F3FD10123FB733CE07B689B69B3F5005F21D1BB68032B8A
:203A200036D801A252F823F0393A00083F3A0008393A0008513A00080123FB732FE07B68EA
:203A4000DB6A03F08073002B24D00123FB7321E07B68DB6AB3F1C07F1ED10123FB731BE002
:203A6000BB68022B02D9032B03D018E00123FB7315E07B68DB6A03F08073002B0ED0012360
:203A8000FB730BE000BF0AE000BF08E000BF06E000BF04E000BF02E000BF00E000BFFB7BC0
:203AA00018461437BD465DF8047B704780B582B000AF78607B68002B01D101233BE07B68DF
:203AC00093F83930DBB2002B06D17B68002283F838207868FDF754FD7B68022283F839208B
:203AE0007B681B681B6823F440317B685A687B681B680A431A607B681B685B6B23F007013C
:203B00007B689A687B681B680A435A637B681B681B6C23F47F5323F03F037A68D1687A6828
:203B200012680B4313647B680022DA637B68012283F83920002318460837BD4680BD00002A
:203B400080B582B000AF78607B68002B01D101235FE0324B1B6B03F40003002B2ED07B682B
:203B60001B681B6803F00103012B07D1786800F057F80346002B21D001234AE07B681B680C
:203B80005B6A03F02003202B08D10021786800F08DF80346002B11D001233AE07B681B68B7
:203BA000DB6903F02003202B08D10121786800F07DF80346002B01D001232AE07B681B6847
:203BC00000221A607B681B683F229A607B681B6800221A617B681B6800229A617B681B689C
:203BE0000022DA617B681B6800225A627B681B6800225A637868FDF7EBFC7B680022DA63E2
:203C00007B68002283F839207B68002283F83820002318460837BD4680BD00BF00380240BA
:203C200080B584B000AF78607B681B681B6823F005027B681B6842F004021A60FEF798FCF0
:203C4000F86017E0FEF794FC0246FB68D31AB3F57A7F0FD97B68DB6B43F020027B68DA63D1
:203C60007B68032283F839207B68002283F83820032317E07B681B681B6803F00103002B68
:203C8000E0D17B681B681A687B681B6822F40C521A607B68012283F839207B68002283F8DD
:203CA0003820002318461037BD4680BD80B584B000AF786039607B681B682433FB607B6820
:203CC0001B681A687B681B6842F004021A603B68012B03D17B681B681C33FB60FEF748FCDB
:203CE000B86017E0FEF744FC0246BB68D31AB3F57A7F0FD97B68DB6B43F020027B68DA6301
:203D00007B68032283F839207B68002283F83820032316E0FB681B6803F02003002BE1D1FA
:203D20007B681B681A687B681B6822F464521A607B68012283F839207B68002283F838203D
:203D4000002318461037BD4680BD80B584B000AF78607B681B685B68FB607B681B681B68FE
:203D6000BB60FB6803F00103002B26D0BB6803F48073002B21D07B681B681A687B681B6836
:203D800022F480721A607B68DB6B43F001027B68DA637B681B6801229A607B68042283F81B
:203DA00039207B68002283F838207B685B69002B03D07B685B6978689847FB6803F020034E
:203DC000002B26D0BB6803F40053002B21D07B681B681A687B681B6822F400521A607B6826
:203DE0001B6820229A607B68DB6B43F002027B68DA637B68042283F839207B68002283F827
:203E000038207B685B69002B03D07B685B6978689847FB6803F00803002B26D0BB6803F4A3
:203E20000063002B21D07B681B681A687B681B6822F400621A607B681B6808229A607B6856
:203E4000DB6B43F004027B68DA637B68042283F839207B68002283F838207B685B69002B3C
:203E600003D07B685B6978689847FB6803F00403002B13D0BB6803F48063002B0ED07B68B5
:203E80001B681A687B681B6822F480621A607B681B6804229A60786800F053F8FB6803F04E
:203EA0000203002B24D0BB6803F40073002B1FD07B681B681A687B681B6822F400721A60E7
:203EC0007B681B6802229A607B68DA6B7B68DA637B68012283F839207B68002283F8382064
:203EE0007B681B69002B03D07B681B6978689847FB6803F01003002B1FD0BB6803F48053C7
:203F0000002B1AD07B681B681A687B681B6822F480521A607B681B6810229A607B68DA6B22
:203F20007B68DA637B68012283F839207B68002283F83820786800F00EF800BF1037BD46D0
:203F400080BD80B483B000AF786000BF0C37BD465DF8047B704780B483B000AF786000BFF9
:203F60000C37BD465DF8047B7047000080B487B000AF786039607B685B68B3F5403F7B6835
:203F800093F83830012B01D1022379E07B68012283F838207B68022283F839203B681B013F
:203FA00018337A6813443B613B695A683B699B681B0413437B61354BFB603B695B680A2B0C
:203FC00003D03B695B68092B07D13B69DB6803F07F437A6913437B6105E03B69DB681B06FD
:203FE0007A6913437B613B68002B20D17B681B685A6AFB68DB4302EA03017B681B687A6909
:204000000A435A627B681B683A6912689A613B695B680A2B03D03B695B68092B27D13B6973
:20402000DA687B681B6822F07F429A621FE07B681B68DA69FB68DB4302EA03017B681B688A
:204040007A690A43DA617B681B683A6912681A613B695B680A2B03D03B695B68092B06D116
:204060003B69DA687B681B6822F07F421A627B68012283F839207B68002283F838200023D0
:2040800018461C37BD465DF8047B70470F0003FF80B489B000AF7860396000237B61002321
:2040A0003B610023BB610023FB6177E10122FB6902FA03F37B613B681B687A6913403B6101
:2040C0003A697B699A4240F066813B685B6803F00303012B05D03B685B6803F00303022B7A
:2040E00030D17B689B68BB61FB695B00032202FA03F3DB43BA691340BB613B68DA68FB69EE
:204100005B0002FA03F3BA691343BB617B68BA699A607B685B68BB610122FB6902FA03F382
:20412000DB43BA691340BB613B685B681B0903F00102FB6902FA03F3BA691343BB617B6881
:20414000BA695A603B685B6803F00303032B17D07B68DB68BB61FB695B00032202FA03F3F6
:20416000DB43BA691340BB613B689A68FB695B0002FA03F3BA691343BB617B68BA69DA6064
:204180003B685B6803F00303022B23D1FB69DA087B68083253F82230BB61FB6903F0070322
:2041A0009B000F2202FA03F3DB43BA691340BB613B681A69FB6903F007039B0002FA03F37D
:2041C000BA691343BB61FB69DA087B680832B96943F822107B681B68BB61FB695B000322F2
:2041E00002FA03F3DB43BA691340BB613B685B6803F00302FB695B0002FA03F3BA69134395
:20420000BB617B68BA691A603B685B6803F44033002B00F0C0800023FB60654B5B6C644A34
:2042200043F480435364624B5B6C03F48043FB60FB68604AFB699B08023352F82330BB6142
:20424000FB6903F003039B000F2202FA03F3DB43BA691340BB617B68574A934237D07B6850
:20426000564A934231D07B68554A93422BD07B68544A934225D07B68534A93421FD07B6804
:20428000524A934219D07B68514A934213D07B68504A93420DD07B684F4A934207D07B6854
:2042A0004E4A934201D1092312E00A2310E008230EE007230CE006230AE0052308E004230B
:2042C00006E0032304E0022302E0012300E00023FA6902F0030292009340BA691343BB616C
:2042E0003449FB699B080233BA6941F823203C4B1B68BB613B69DB43BA691340BB613B6849
:204300005B6803F48033002B03D0BA693B691343BB61334ABB691360314B5B68BB613B69E6
:20432000DB43BA691340BB613B685B6803F40033002B03D0BA693B691343BB61284ABB6970
:204340005360274B9B68BB613B69DB43BA691340BB613B685B6803F48013002B03D0BA69B4
:204360003B691343BB611E4ABB6993601C4BDB68BB613B69DB43BA691340BB613B685B6828
:2043800003F40013002B03D0BA693B691343BB61134ABB69D360FB690133FB61FB690F2B96
:2043A0007FF684AE00BF2437BD465DF8047B70470038024000380140000002400004024033
:2043C00000080240000C0240001002400014024000180240001C024000200240002402401D
:2043E000003C014080B487B000AF7860396000233B610023FB600023BB6000237B61D9E082
:2044000001227B6902FA03F33B613A683B691340FB60FA683B699A4240F0C9806A4A7B6920
:204420009B08023352F82330BB607B6903F003039B000F2202FA03F3BA681340BB607B68DE
:20444000624A934237D07B68614A934231D07B68604A93422BD07B685F4A934225D07B68DA
:204460005E4A93421FD07B685D4A934219D07B685C4A934213D07B685B4A93420DD07B682A
:204480005A4A934207D07B68594A934201D1092312E00A2310E008230EE007230CE006230C
:2044A0000AE0052308E0042306E0032304E0022302E0012300E000237A6902F00302920051
:2044C0009340BA689A4232D14A4B1A68FB68DB43484913400B60474B5A68FB68DB434549BE
:2044E00013404B60434B9A68FB68DB43414913408B60404BDA68FB68DB433E491340CB6092
:204500007B6903F003039B000F2202FA03F3BB602D4A7B699B08023352F82310BB68DA43F5
:2045200029487B699B080A40023340F823207B681A687B695B00032101FA03F3DB431A4058
:204540007B681A607B69DA087B68083253F822107B6903F007039B000F2202FA03F3DB43E1
:204560007A69D20819407B68083243F822107B68DA687B695B00032101FA03F3DB431A40AA
:204580007B68DA607B685A6801217B6901FA03F3DB431A407B685A607B689A687B695B0029
:2045A000032101FA03F3DB431A407B689A607B6901337B617B690F2B7FF622AF00BF1C3727
:2045C000BD465DF8047B704700380140000002400004024000080240000C02400010024062
:2045E0000014024000180240001C02400020024000240240003C014080B483B000AF78607A
:204600000B467B8013467B707B78002B03D07A887B689A6103E07B881A047B689A6100BF98
:204620000C37BD465DF8047B7047000080B584B000AF78607B68002B01D101231FE17B68D2
:2046400093F83D30DBB2002B06D17B68002283F83C207868FCF7D6FF7B68242283F83D204E
:204660007B681B681A687B681B6822F001021A607B681B681A687B681B6842F400421A601D
:204680007B681B681A687B681B6822F400421A6001F0C0F9F8607B685B687B4A934207D8D9
:2046A000FB687A4A934294BF01230023DBB206E0FB68774A934294BF01230023DBB2002BA6
:2046C00001D00123DBE0FB68724AA2FB03239B0CBB607B681B685B6823F03F017B681B68A4
:2046E000BA680A435A607B681B681B6A23F03F017B685B68644A934202D8BB68013309E010
:20470000BB684FF4967202FB03F3634AA2FB03239B0901337A6812680B4313627B681B686B
:20472000DB6923F44F4222F0FF027B685B6856498B420DD8FB68591E7B685B685B00B1FBFC
:20474000F3F30133C3F30B03042B38BF04234FE07B689B68002B11D1FB68581E7B6859688F
:204760000B465B000B44B0FBF3F30133C3F30B03002B0CBF01230023DBB212E0FB68581E20
:204780007B6859680B469B000B4499000B44B0FBF3F30133C3F30B03002B0CBF012300238C
:2047A000DBB2002B01D0012322E07B689B68002B0ED1FB68581E7B6859680B465B000B44E2
:2047C000B0FBF3F30133C3F30B0343F400430FE0FB68581E7B6859680B469B000B44990096
:2047E0000B44B0FBF3F30133C3F30B0343F44043796809681343CB617B681B681B6823F057
:20480000C0017B68DA697B681B6A1A437B681B680A431A607B681B689B6823F4034323F0E6
:20482000FF037A6811697A68D26811437A6812680B4393607B681B68DB6823F0FF017B686E
:204840005A697B689B691A437B681B680A43DA607B681B681A687B681B6842F001021A6067
:204860007B6800221A647B68202283F83D207B6800221A637B68002283F83E2000231846D7
:204880001037BD4680BD00BFA08601007F841E00FF083D0083DE1B43D34D621080B582B08E
:2048A00000AF78607B68002B01D1012321E07B68242283F83D207B681B681A687B681B681D
:2048C00022F001021A607868FCF7E4FE7B6800221A647B68002283F83D207B6800221A63B2
:2048E0007B68002283F83E207B68002283F83C20002318460837BD4680BD80B483B000AFE8
:20490000786039607B6893F83D30DBB2202B29D17B68242283F83D207B681B681A687B68AD
:204920001B6822F001021A607B681B685A6A7B681B6822F010025A627B681B68596A7B68E9
:204940001B683A680A435A627B681B681A687B681B6842F001021A607B68202283F83D202F
:20496000002300E0022318460C37BD465DF8047B704780B485B000AF786039600023FB81B8
:204980007B6893F83D30DBB2202B2AD17B68242283F83D207B681B681A687B681B6822F008
:2049A00001021A607B681B685B6AFB81FB8923F00F03FB813B689AB2FB891343FB817B6886
:2049C0001B68FA895A627B681B681A687B681B6842F001021A607B68202283F83D200023F8
:2049E00000E0022318461437BD465DF8047B704780B584B000AF78607B68002B01D1012387
:204A0000BFE07B6893F8A130DBB2002B06D17B68002283F8A0207868FCF75EFE7B680222B3
:204A200083F8A1207B681B689A697B681B6822F070429A617B681B6899697B685A687B68BC
:204A40009B681A437B68DB681A437B681B691A437B681B680A439A617B681B6899687B68B7
:204A60001A684A4B0B4093607B685B691B04FB607B681B6899687B689A69FB681A437B68D0
:204A80001B680A439A607B681B68D9687B681A683E4B0B40D3607B68DB691B04FB607B68B5
:204AA0001B68D9687B681A6AFB681A437B681B680A43DA607B681B6819697B681A68334B53
:204AC0000B4013617B685B6A1B04FB607B681B6819697B689A6AFB681A437B681B680A43B3
:204AE0001A617B681B6859697B681A68274B0B4053617B68DB6A1B04FB607B681B68596973
:204B00007B681A6BFB681A437B681B680A435A617B6893F835301B02FB607B6893F83630E0
:204B20001B04BB607B681B68DA6A7B681B6802F07F42DA627B681B68D96ABA68FB681343B8
:204B40007A6892F834201A437B681B680A43DA627B681B685A6B7B681B6842F006025A63C1
:204B60007B681B689A697B681B6842F001029A617B680022C3F8A4207B68012283F8A12070
:204B8000002318461037BD4680BD00BF00F800F080B582B000AF78607868FCF7D9FE7B68EB
:204BA0000022C3F8A4207B68002283F8A1207B68002283F8A020002318460837BD4680BDD3
:204BC00080B584B000AF78607B681B689B6BFB607B681B685B6BBB60FB6803F00403002B4F
:204BE00023D0BB6803F00403002B1ED07B681B685A6B7B681B6822F004025A637B681B68C0
:204C00000422DA637B68D3F8A43043F001027B68C3F8A4207B68042283F8A1207B680022CD
:204C200083F8A020786800F06FF8FB6803F00203002B23D0BB6803F00203002B1ED07B6872
:204C40001B685A6B7B681B6822F002025A637B681B680222DA637B68D3F8A43043F0020253
:204C60007B68C3F8A4207B68042283F8A1207B68002283F8A020786800F046F8FB6803F0E9
:204C80000103002B1BD0BB6803F00103002B16D07B681B685A6B7B681B6822F001025A636C
:204CA0007B681B680122DA637B68012283F8A1207B68002283F8A020786800F02FF8FB6852
:204CC00003F00803002B1BD0BB6803F00803002B16D07B681B685A6B7B681B6822F00802E1
:204CE0005A637B681B680822DA637B68012283F8A1207B68002283F8A020786800F018F8C8
:204D000000BF1037BD4680BD80B483B000AF786000BF0C37BD465DF8047B704780B483B068
:204D200000AF786000BF0C37BD465DF8047B704780B483B000AF786000BF0C37BD465DF814
:204D4000047B7047B0B584B000AFF860B9607A60FB6893F8A030012B01D102232CE0FB683A
:204D6000012283F8A020FB68022283F8A120FA687B68342101FB03F3134403F13802BB68DE
:204D800014461D460FCD0FC40FCD0FC40FCD0FC42B6823607A68B968F86800F011F8FB6874
:204DA0001B6801225A62FB68012283F8A120FB68002283F8A020002318461037BD46B0BDD7
:204DC00080B489B000AFF860B9607A60BB685A68FB681B68DB681B0CC3F30B0313441B04FD
:204DE000FB61FB681B681A467B68DB01134484335B68FA68126811467A68D2010A44843295
:204E000003F470435360BB681A68FB681B68DB681B0CC3F30B0313445A1CFB681B6819466A
:204E20007B68DB010B4484331946FB6913434B60BB68DA68FB681B68DB68C3F30A03134441
:204E40001B04FB61FB681B681A467B68DB01134484339B68FA68126811467A68D2010A448B
:204E6000843203F470439360BB689A68FB681B68DB68C3F30A0313445A1CFB681B681946BC
:204E80007B68DB010B4484331946FB6913438B60FB681B681A467B68DB01134484331B69B2
:204EA000FA68126811467A68D2010A44843223F007031361FB681B681A467B68DB01134419
:204EC00084331A46BB681B691361BB6893F831301B02FB61BB6893F832301B04BB61BB68AA
:204EE0009B691B067B61FB681B681A467B68DB01134484339B69FB681B681A467B68DB0195
:204F0000134484331A4600239361BB6893F830301A46FB691A43BB691A43FB681B68194617
:204F20007B68DB010B44843319467B6913438B61FB681B681A467B68DB01134484335B6950
:204F4000FA68126811467A68D2010A44843223F0FF035361FB681B681A467B68DB01134440
:204F600084331A46BB685B695361FB681B681A467B68DB0113448433DB69FA6812681146F5
:204F80007A68D2010A44843223F4E06323F00703D361BB68DA69BB681B6AF968096808467F
:204FA0007968C901014484311343CB61FB681B681A467B68DB01134484339B6AFB681B68CC
:204FC0001A467B68DB01134484331A4600239362FB681B681A467B68DB01134484331A46B9
:204FE000BB685B6A9362BB681B69002B02D10423FB611BE0BB681B69012B02D10323FB6189
:2050000014E0BB681B69042B0BD0BB681B69022B07D0BB681B69032B03D0BB681B69072BBF
:2050200002D10223FB6101E00123FB61FB681B681A467B68DB0113448433DB6AFA68126887
:2050400011467A68D2010A44843203F0E023D362BB689B6AFA6902FB03F31A04BB68596895
:20506000BB681B68CB1AF96901FB03F30333F968096808467968C901014484311343CB62D3
:20508000FB681B681A467B68DB01134484331B6BFA68126811467A68D2010A44843223F474
:2050A000FF6323F007031363FB681B681A467B68DB01134484331A46BB68DB6A1363FB6847
:2050C0001B681A467B68DB01134484331B68FA68126811467A68D2010A44843243F001037A
:2050E000136000BF2437BD465DF8047B7047000080B582B000AF00237B6000233B60204B58
:205100001B6C1F4A43F0805313641D4B1B6C03F080533B603B681B4B01221A60FDF728FA16
:20512000786009E0FDF724FA02467B68D31AB3F57A7F01D903231FE0134B5B6803F4803319
:20514000B3F5803FEED1114B01221A60FDF710FA786009E0FDF70CFA02467B68D31AB3F5B7
:205160007A7F01D9032307E0074B5B6803F40033B3F5003FEED1002318460837BD4680BD6A
:205180000038024040000E420070004044000E4280B586B000AF78607B68002B01D10123CB
:2051A00064E27B681B6803F00103002B75D0A34B9B6803F00C03042B0CD0A04B9B6803F0FD
:2051C0000C03082B12D19D4B5B6803F48003B3F5800F0BD1994B1B6803F40033002B5BD08B
:2051E0007B685B68002B57D101233FE27B685B68B3F5803F06D1914B1B68904A43F480336A
:2052000013601DE07B685B68B3F5A02F0CD18B4B1B688A4A43F480231360884B1B68874A83
:2052200043F4803313600BE0844B1B68834A23F480331360814B1B68804A23F48023136084
:205240007B685B68002B13D0FDF792F9386108E0FDF78EF902463B69D31A642B01D90323B7
:2052600004E2764B1B6803F40033002BF0D014E0FDF77EF9386108E0FDF77AF902463B69BC
:20528000D31A642B01D90323F0E16C4B1B6803F40033002BF0D100E000BF7B681B6803F079
:2052A0000203002B63D0654B9B6803F00C03002B0BD0624B9B6803F00C03082B1CD15F4B54
:2052C0005B6803F48003002B16D15C4B1B6803F00203002B05D07B68DB68012B01D0012316
:2052E000C4E1564B1B6823F0F8027B681B69DB00524913430B603AE07B68DB68002B20D0DF
:205300004F4B01221A60FDF733F9386108E0FDF72FF902463B69D31A022B01D90323A5E10D
:20532000464B1B6803F00203002BF0D0434B1B6823F0F8027B681B69DB00404913430B60CC
:2053400015E03F4B00221A60FDF712F9386108E0FDF70EF902463B69D31A022B01D90323B1
:2053600084E1364B1B6803F00203002BF0D17B681B6803F00803002B30D07B685B69002B7F
:2053800016D0304B01221A60FDF7F2F8386108E0FDF7EEF802463B69D31A022B01D90323D0
:2053A00064E1264B5B6F03F00203002BF0D015E0244B00221A60FDF7DBF8386108E0FDF74E
:2053C000D7F802463B69D31A022B01D903234DE11A4B5B6F03F00203002BF0D17B681B6851
:2053E00003F00403002B00F0A0800023FB75134B1B6C03F08053002B0FD10023BB600F4B97
:205400001B6C0E4A43F0805313640C4B1B6C03F08053BB60BB680123FB750B4B1B6803F4EA
:205420008073002B21D1084B1B68074A43F480731360FDF79DF8386111E000BF003802404C
:2054400000004742800E474200700040FDF790F802463B69D31A022B01D9032306E1854BC3
:205460001B6803F48073002BF0D07B689B68012B06D1814B1B6F804A43F0010313671CE01E
:205480007B689B68052B0CD17B4B1B6F7A4A43F004031367784B1B6F774A43F00103136792
:2054A0000BE0754B1B6F744A23F001031367724B1B6F714A23F0040313677B689B68002BC1
:2054C00015D0FDF755F838610AE0FDF751F802463B69D31A41F28832934201D90323C5E0A6
:2054E000654B1B6F03F00203002BEED014E0FDF73FF838610AE0FDF73BF802463B69D31AEF
:2055000041F28832934201D90323AFE05A4B1B6F03F00203002BEED1FB7D012B05D1564B0E
:205520001B6C554A23F0805313647B689B69002B00F09B80504B9B6803F00C03082B5CD0CC
:205540007B689B69022B41D14C4B00221A60FDF70FF8386108E0FDF70BF802463B69D31AA6
:20556000022B01D9032381E0434B1B6803F00073002BF0D17B68DA697B681B6A1A437B686C
:205580005B6A9B011A437B689B6A5B08013B1B041A437B68DB6A1B06374913434B60374BFE
:2055A00001221A60FCF7E4FF386108E0FCF7E0FF02463B69D31A022B01D9032356E02E4B70
:2055C0001B6803F00073002BF0D04EE02B4B00221A60FCF7CDFF386108E0FCF7C9FF024674
:2055E0003B69D31A022B01D903233FE0224B1B6803F00073002BF0D137E07B689B69012B62
:2056000001D1012332E01C4B5B68FB607B689B69012B28D0FB6803F480027B68DB699A4213
:2056200021D1FB6803F03F027B681B6A9A421AD1FA6847F6C07313407A68526A9201934287
:2056400011D1FB6803F440327B689B6A5B08013B1B049A4207D1FB6803F070627B68DB6AF2
:205660001B069A4201D0012300E0002318461837BD4680BD00700040003802406000474235
:2056800080B584B000AF786039607B68002B01D10123CCE0684B1B6803F00F033A689A4218
:2056A0000CD9654B3A68D2B21A70634B1B6803F00F033A689A4201D00123B8E07B681B68FE
:2056C00003F00203002B20D07B681B6803F00403002B05D0594B9B68584A43F4E0539360B1
:2056E0007B681B6803F00803002B05D0534B9B68524A43F460439360504B9B6823F0F00299
:205700007B689B684D4913438B607B681B6803F00103002B44D07B685B68012B07D1474BF4
:205720001B6803F40033002B19D101237FE07B685B68022B03D07B685B68032B07D13F4B48
:205740001B6803F00073002B09D101236FE03B4B1B6803F00203002B01D1012367E0374BFD
:205760009B6823F003027B685B68344913438B60FCF7FEFEF8600AE0FCF7FAFE0246FB68E3
:20578000D31A41F28832934201D903234FE02B4B9B6803F00C027B685B689B009A42EBD1D8
:2057A000254B1B6803F00F033A689A420CD2224B3A68D2B21A70204B1B6803F00F033A68E3
:2057C0009A4201D0012332E07B681B6803F00403002B08D0194B9B6823F4E0527B68DB68AD
:2057E000164913438B607B681B6803F00803002B09D0124B9B6823F460427B681B69DB0046
:205800000E4913438B6000F021F801460B4B9B681B0903F00F030A4AD35C21FA03F3094A37
:205820001360094B1B681846FCF7E4FB002318461037BD4680BD00BF003C0240003802402F
:205840004C8500080000002004000020F0B585B000AF00237B600023FB6000233B60002345
:20586000BB60634B9B6803F00C03042B07D0082B08D0002B40F0B4805E4BBB60B3E05E4BBA
:20588000BB60B0E05A4B5B6803F03F037B60584B5B6803F48003002B4AD0554B5B689B09B9
:2058A0004FF0000440F2FF114FF0000203EA010504EA0206294632464FF000034FF00004CD
:2058C000540144EAD1644B0119462246491B62EB06024FF000034FF00004940144EA916407
:2058E0008B015B1A64EB02044FF000014FF00002E20042EA5372D9000B4614465B1944EBD7
:2059000006044FF000014FF00002620242EAD35259020B461446184621467B684FF0000456
:205920001A462346FAF78CFD03460C46FB6049E02F4B5B689B094FF0000440F2FF114FF060
:20594000000203EA010504EA0206294632464FF000034FF00004540144EAD1644B0119468D
:205960002246491B62EB06024FF000034FF00004940144EA91648B015B1A64EB02044FF034
:2059800000014FF00002E20042EA5372D9000B4614465B1944EB06044FF000014FF0000240
:2059A000A20242EA935299020B461446184621467B684FF000041A462346FAF741FD0346C0
:2059C0000C46FB600A4B5B681B0C03F0030301335B003B60FA683B68B2FBF3F3BB6002E023
:2059E000044BBB6000BFBB6818461437BD46F0BD003802400024F40000127A0080B400AF01
:205A0000034B1B681846BD465DF8047B704700BF0000002080B500AFFFF7F0FF0146054B8A
:205A20009B689B0A03F00703034AD35C21FA03F3184680BD003802405C85000880B500AF52
:205A4000FFF7DCFF0146054B9B685B0B03F00703034AD35C21FA03F3184680BD00380240D6
:205A60005C85000880B483B000AF786039607B680F221A60124B9B6803F003027B685A6033
:205A80000F4B9B6803F0F0027B689A600C4B9B6803F4E0527B68DA60094B9B68DB0803F416
:205AA000E0527B681A61074B1B6803F00F023B681A6000BF0C37BD465DF8047B704700BF11
:205AC00000380240003C024080B586B000AF786000237B6100233B617B681B6803F00103C1
:205AE000002B0BD17B681B6803F00203002B05D17B681B6803F04003002B75D0AD4B00221A
:205B00001A60FCF735FD786108E0FCF731FD02467B69D31A022B01D903238BE1A64B1B68DE
:205B200003F00063002BF0D17B681B6803F00103002B09D07B685B689A017B689B681B0779
:205B40009D491343C1F884307B681B6803F00203002B1FD0984BD3F884301B0F03F007039B
:205B60003B617B685B689A017B68DB681B061A433B691B0790491343C1F884308E4BD3F89E
:205B80008C3023F01F027B68DB69013B8A491343C1F88C307B681B6803F04003002B0DD070
:205BA0007B685B689A017B68DB681B061A437B689B681B0780491343C1F884307D4B012281
:205BC0001A60FCF7D5FC786108E0FCF7D1FC02467B69D31A022B01D903232BE1764B1B6870
:205BE00003F00063002BF0D07B681B6803F00403002B05D17B681B6803F00803002B79D02B
:205C00006E4B00221A60FCF7B3FC786108E0FCF7AFFC02467B69D31A022B01D9032309E1FE
:205C2000654B1B6803F00053B3F1005FEFD07B681B6803F00403002B20D05F4BD3F8883081
:205C40001B0F03F007033B617B681B699A017B685B691B061A433B691B0757491343C1F8E5
:205C60008830554BD3F88C3023F4F8527B681B6A013B1B0250491343C1F88C307B681B6859
:205C800003F00803002B1ED04B4BD3F888301B0E03F00F033B617B681B699A013B691B0643
:205CA0001A437B689B691B0743491343C1F88830414BD3F88C3023F440327B685B6A3E4960
:205CC0001343C1F88C303D4B01221A60FCF750FC786108E0FCF74CFC02467B69D31A022B53
:205CE00001D90323A6E0344B1B6803F00053B3F1005FEFD17B681B6803F02003002B00F07C
:205D00008D800023FB602C4B1B6C2B4A43F080531364294B1B6C03F08053FB60FB68284B16
:205D20001B68274A43F480731360FCF721FC786108E0FCF71DFC02467B69D31A022B01D9D5
:205D4000032377E01E4B1B6803F48073002BF0D0194B1B6F03F440733B613B69002B39D0F9
:205D60007B689B6A03F440733A699A4232D0124B1B6F23F440733B61124B01221A60114B6D
:205D800000221A600C4A3B6913670B4B1B6F03F00103012B1ED1FCF7EBFB786114E0FCF768
:205DA000E7FB02467B69D31A41F2883293420BD903233FE068004742003802407000474299
:205DC00000700040400E47421C4B1B6F03F00203002BE4D07B689B6A03F44073B3F5407F7B
:205DE0000DD1164B9B6823F4F8127B689B6A23F0704323F44073114913438B6005E00F4BEE
:205E00009B680E4A23F4F81393600C4B1A6F7B689B6AC3F30B03094913430B677B681B6806
:205E200003F01003002B04D07B6893F82C20044B1A60002318461837BD4680BD0038024050
:205E4000E011474280B582B000AFFCF791FB7860724B1B68714A43F00103136008E0FCF7DB
:205E600087FB02467B68D31A022B01D90323D0E06A4B1B6803F00203002BF0D0674B1B685B
:205E8000664A43F080031360FCF772FB7860634B00229A600AE0FCF76BFB02467B68D31ACC
:205EA00041F28832934201D90323B2E05B4B9B6803F00C03002BEED1FCF75AFB7860574B37
:205EC0001B68564A23F45023136008E0FCF750FB02467B68D31A642B01D9032399E04F4BC2
:205EE0001B6803F40033002BF0D1FCF741FB78604A4B1B68494A23F08073136008E0FCF703
:205F000037FB02467B68D31A022B01D9032380E0424B1B6803F00073002BF0D1FCF728FB32
:205F200078603E4B1B683D4A23F08063136008E0FCF71EFB02467B68D31A022B01D9032354
:205F400067E0364B1B6803F00063002BF0D1FCF70FFB7860314B1B68304A23F0805313600D
:205F600008E0FCF705FB02467B68D31A022B01D903234EE0294B1B6803F00053002BF0D1AA
:205F8000264B274A5A60254B264AC3F88420234B244AC3F88820214BDB68204A23F4F8536C
:205FA000D3601E4BDB681D4A23F40053D3601B4BDB681A4A23F48043D360184BDB68174ADD
:205FC00043F41F03D360154BDB68144A43F40013D360124BDB68114A43F48003D3600F4B75
:205FE0005B6F0E4A23F0010353670C4B5B6F0B4A43F0807353670C4B0C4A1A600C4B1B6857
:206000001846FBF7F7FF0346002B01D0012300E0002318460837BD4680BD00BF00380240B8
:206020001030000400300024000000200024F4000400002080B582B000AF786039607B6802
:20604000002B01D1012325E07B6893F82C30DBB2002B06D17B68002283F82D207868FBF722
:2060600071FF7B68022283F82C207B681A687B6804331946104602F0CDF87B6818687B68B1
:206080005B681A46396802F038F97B68012283F82C20002318460837BD4680BD80B582B0E5
:2060A00000AF78607868FBF79BFF7B681A687B685B681946104602F09FF97B68002283F823
:2060C0002C207B68002283F82D20002318460837BD4680BD80B584B000AFF860B9607A6044
:2060E000FB6893F82C30DBB2022B01D1022318E0FB68022283F82C20FB681B687A68B96876
:20610000184602F09BF9BB681B68022B04D1FB68052283F82C2003E0FB68012283F82C2072
:20612000002318461037BD4680BD80B582B000AF786039607B6893F82C30DBB2022B01D17A
:2061400002230EE07B68022283F82C207B681B683968184602F0AEF97B68012283F82C2093
:20616000002318460837BD4680BD80B582B000AF78607B68002B01D101237BE07B685B6A2A
:20618000002B08D17B685B68B3F5827F09D07B680022DA6105E07B6800221A617B68002229
:2061A0005A617B6800229A627B6893F85130DBB2002B06D17B68002283F850207868FBF7E3
:2061C00017FC7B68022283F851207B681B681A687B681B6822F040021A607B685B6803F400
:2061E00082727B689B6803F404431A437B68DB6803F400631A437B681B6903F002031A4391
:206200007B685B6903F001031A437B689B6903F400731A437B68DB6903F038031A437B6840
:206220001B6A03F0800342EA03017B689B6A03F400527B681B680A431A607B689B691B0CC7
:2062400003F004017B685B6A03F010027B681B680A435A607B681B68DA697B681B6822F407
:206260000062DA617B6800225A657B68012283F85120002318460837BD4680BD80B582B064
:2062800000AF78607B68002B01D101231AE07B68022283F851207B681B681A687B681B6838
:2062A00022F040021A607868FBF778FC7B6800225A657B68002283F851207B68002283F895
:2062C0005020002318460837BD4680BD80B586B000AFF860B9607A607B800023FB75FB68F8
:2062E00093F85030012B01D10223E3E0FB68012283F85020FB6893F85130BB75FB685B6877
:206300003B61BB7D012B0DD03B69B3F5827F06D1FB689B68002B02D1BB7D042B02D00223BA
:20632000FB75C2E0BB68002B05D07B68002B02D07B88002B02D10123FB75B6E0FB6893F82F
:206340005130DBB2042B03D0FB68052283F85120FB6800225A65FB68BA681A63FB687A880C
:206360009A86FB687A88DA86FB687A689A63FB687A889A87FB687A88DA87FB6800221A64A7
:20638000FB6800225A64FB6893F85130DBB2042B08D1FB68DB6C494A1A64FB68DB6C484ABF
:2063A000DA6307E0FB68DB6C464A1A64FB68DB6C454ADA63FB68DB6C444ADA64FB68DB6C6B
:2063C00000221A65FB68D86CFB681B680C331946FB689B6B1A46FB68DB8F9BB2FDF714F80E
:2063E0000346002B0CD0FB685B6D43F01002FB685A650123FB75FB68012283F8512054E081
:20640000FB681B685A68FB681B6842F001025A60FB689B6C00221A64FB689B6C0022DA632C
:20642000FB689B6C0022DA64FB689B6C00221A65FB68986CFB681B6B1946FB681B680C33B3
:206440001A46FB68DB8E9BB2FCF7DEFF0346002B0CD0FB685B6D43F01002FB685A650123ED
:20646000FB75FB68012283F851201EE0FB681B681B6803F04003402B07D0FB681B681A68F3
:20648000FB681B6842F040021A60FB681B685A68FB681B6842F020025A60FB681B685A68E4
:2064A000FB681B6842F002025A60FB68002283F85020FB7D18461837BD4680BD8968000838
:2064C00051670008A5680008F9670008C168000880B588B000AF78607B681B685B68FB61D5
:2064E0007B681B689B68BB61BB699B0903F00103002B0FD1BB6903F00103002B0AD0FB69C9
:206500009B0903F00103002B04D07B681B6C78689847D8E0BB695B0803F00103002B0AD07D
:20652000FB69DB0903F00103002B04D07B685B6C78689847C7E0BB695B0903F00103002B63
:206540000CD1BB699B0903F00103002B06D1BB691B0A03F00103002B00F0B580FB695B0945
:2065600003F00103002B00F0AE80BB699B0903F00103002B23D07B6893F85130DBB2032B54
:2065800011D07B685B6D43F004027B685A6500237B617B681B68DB687B617B681B689B68A7
:2065A0007B617B690BE000233B617B681B68DB683B617B681B689B683B613B6983E0BB69FC
:2065C0005B0903F00103002B14D07B685B6D43F001027B685A650023FB607B681B689B68E7
:2065E000FB607B681B681A687B681B6822F040021A60FB68BB691B0A03F00103002B0CD07A
:206600007B685B6D43F008027B685A650023BB607B681B689B68BB60BB687B685B6D002B35
:2066200050D07B681B685A687B681B6822F0E0025A607B68012283F85120FB6903F00203B0
:20664000002B04D1FB6903F00103002B34D07B681B685A687B681B6822F003025A607B686E
:20666000DB6C002B11D07B68DB6C184A1A657B68DB6C1846FCF790FF0346002B05D07B6886
:206680005B6D43F040027B685A657B689B6C002B16D07B689B6C0D4A1A657B689B6C184618
:2066A000FCF77AFF0346002B0AD07B685B6D43F040027B685A6503E0786800F031F800E0A2
:2066C00000BF00BF00BF2037BD4680BD0169000880B483B000AF786000BF0C37BD465DF82C
:2066E000047B704780B483B000AF786000BF0C37BD465DF8047B704780B483B000AF7860F8
:2067000000BF0C37BD465DF8047B704780B483B000AF786000BF0C37BD465DF8047B70476B
:2067200080B483B000AF786000BF0C37BD465DF8047B704780B483B000AF78607B6893F87F
:206740005130DBB218460C37BD465DF8047B704780B584B000AF78607B689B6BFB60FBF7D6
:2067600007FFB8607B681B681B6803F48073B3F5807F3BD0FB681B685A68FB681B6822F0D6
:2067800020025A60FB689B68002B0DD1FB685B68B3F5827F08D1FB681B685A68FB681B6878
:2067A00022F003025A6007E0FB681B685A68FB681B6822F001025A60BA686421F86800F0CD
:2067C0003BF90346002B02D0FB6820225A65FB680022DA87FB68012283F85120FB685B6D58
:2067E000002B03D0F868FFF79BFF02E0F868FFF76FFF1037BD4680BD80B584B000AF78608E
:206800007B689B6BFB60FBF7B3FEB8607B681B681B6803F48073B3F5807F2FD0FB681B681A
:206820005A68FB681B6822F020025A60BA686421F86800F067F90346002B05D0FB685B6DF7
:2068400043F02002FB685A65FB681B685A68FB681B6822F003025A60FB680022DA86FB681A
:206860000022DA87FB68012283F85120FB685B6D002B03D0F868FFF753FF02E0F868FFF71A
:2068800031FF1037BD4680BD80B584B000AF78607B689B6BFB60F868FFF72EFF00BF103784
:2068A000BD4680BD80B584B000AF78607B689B6BFB60F868FFF72AFF00BF1037BD4680BD9F
:2068C00080B584B000AF78607B689B6BFB60FB681B685A68FB681B6822F003025A60FB68C2
:2068E0005B6D43F01002FB685A65FB68012283F85120F868FFF714FF00BF1037BD4680BD48
:2069000080B584B000AF78607B689B6BFB60FB680022DA87FB680022DA86F868FFF700FF23
